{
  "address": "0xa9F7bc645730a7ef8Ba63a879AB5e6A20FD23D29",
  "abi": [
    {
      "inputs": [
        {
          "internalType": "contract IPellUSD",
          "name": "_pusd",
          "type": "address"
        },
        {
          "internalType": "address[]",
          "name": "_assets",
          "type": "address[]"
        },
        {
          "internalType": "address[]",
          "name": "_custodians",
          "type": "address[]"
        },
        {
          "internalType": "address",
          "name": "_owner",
          "type": "address"
        }
      ],
      "stateMutability": "nonpayable",
      "type": "constructor"
    },
    {
      "anonymous": false,
      "inputs": [
        {
          "indexed": true,
          "internalType": "address",
          "name": "asset",
          "type": "address"
        }
      ],
      "name": "AssetAdded",
      "type": "event"
    },
    {
      "anonymous": false,
      "inputs": [
        {
          "indexed": true,
          "internalType": "address",
          "name": "asset",
          "type": "address"
        }
      ],
      "name": "AssetRemoved",
      "type": "event"
    },
    {
      "anonymous": false,
      "inputs": [
        {
          "indexed": false,
          "internalType": "address",
          "name": "beneficiary",
          "type": "address"
        },
        {
          "indexed": true,
          "internalType": "address",
          "name": "collateralAsset",
          "type": "address"
        },
        {
          "indexed": false,
          "internalType": "uint256",
          "name": "collateralAmount",
          "type": "uint256"
        },
        {
          "indexed": false,
          "internalType": "uint256",
          "name": "pusdAmount",
          "type": "uint256"
        },
        {
          "indexed": false,
          "internalType": "uint256",
          "name": "feeAmount",
          "type": "uint256"
        }
      ],
      "name": "BuySuccess",
      "type": "event"
    },
    {
      "anonymous": false,
      "inputs": [
        {
          "indexed": true,
          "internalType": "address",
          "name": "custodian",
          "type": "address"
        }
      ],
      "name": "CustodianAddressAdded",
      "type": "event"
    },
    {
      "anonymous": false,
      "inputs": [
        {
          "indexed": true,
          "internalType": "address",
          "name": "custodian",
          "type": "address"
        }
      ],
      "name": "CustodianAddressRemoved",
      "type": "event"
    },
    {
      "anonymous": false,
      "inputs": [
        {
          "indexed": false,
          "internalType": "address",
          "name": "wallet",
          "type": "address"
        }
      ],
      "name": "CustodyWalletAdded",
      "type": "event"
    },
    {
      "anonymous": false,
      "inputs": [
        {
          "indexed": false,
          "internalType": "address",
          "name": "wallet",
          "type": "address"
        }
      ],
      "name": "CustodyWalletRemoved",
      "type": "event"
    },
    {
      "anonymous": false,
      "inputs": [
        {
          "indexed": true,
          "internalType": "address",
          "name": "previousOwner",
          "type": "address"
        },
        {
          "indexed": true,
          "internalType": "address",
          "name": "newOwner",
          "type": "address"
        }
      ],
      "name": "OwnershipTransferStarted",
      "type": "event"
    },
    {
      "anonymous": false,
      "inputs": [
        {
          "indexed": true,
          "internalType": "address",
          "name": "previousOwner",
          "type": "address"
        },
        {
          "indexed": true,
          "internalType": "address",
          "name": "newOwner",
          "type": "address"
        }
      ],
      "name": "OwnershipTransferred",
      "type": "event"
    },
    {
      "anonymous": false,
      "inputs": [
        {
          "indexed": false,
          "internalType": "address",
          "name": "account",
          "type": "address"
        }
      ],
      "name": "Paused",
      "type": "event"
    },
    {
      "anonymous": false,
      "inputs": [
        {
          "indexed": true,
          "internalType": "bytes32",
          "name": "role",
          "type": "bytes32"
        },
        {
          "indexed": true,
          "internalType": "bytes32",
          "name": "previousAdminRole",
          "type": "bytes32"
        },
        {
          "indexed": true,
          "internalType": "bytes32",
          "name": "newAdminRole",
          "type": "bytes32"
        }
      ],
      "name": "RoleAdminChanged",
      "type": "event"
    },
    {
      "anonymous": false,
      "inputs": [
        {
          "indexed": true,
          "internalType": "bytes32",
          "name": "role",
          "type": "bytes32"
        },
        {
          "indexed": true,
          "internalType": "address",
          "name": "account",
          "type": "address"
        },
        {
          "indexed": true,
          "internalType": "address",
          "name": "sender",
          "type": "address"
        }
      ],
      "name": "RoleGranted",
      "type": "event"
    },
    {
      "anonymous": false,
      "inputs": [
        {
          "indexed": true,
          "internalType": "bytes32",
          "name": "role",
          "type": "bytes32"
        },
        {
          "indexed": true,
          "internalType": "address",
          "name": "account",
          "type": "address"
        },
        {
          "indexed": true,
          "internalType": "address",
          "name": "sender",
          "type": "address"
        }
      ],
      "name": "RoleRevoked",
      "type": "event"
    },
    {
      "anonymous": false,
      "inputs": [
        {
          "indexed": false,
          "internalType": "address",
          "name": "account",
          "type": "address"
        }
      ],
      "name": "Unpaused",
      "type": "event"
    },
    {
      "anonymous": false,
      "inputs": [
        {
          "indexed": false,
          "internalType": "bool",
          "name": "oldStatus",
          "type": "bool"
        },
        {
          "indexed": false,
          "internalType": "bool",
          "name": "newStatus",
          "type": "bool"
        }
      ],
      "name": "UpdateBuyStatus",
      "type": "event"
    },
    {
      "anonymous": false,
      "inputs": [
        {
          "indexed": false,
          "internalType": "uint256",
          "name": "oldFeeRate",
          "type": "uint256"
        },
        {
          "indexed": false,
          "internalType": "uint256",
          "name": "newFeeRate",
          "type": "uint256"
        }
      ],
      "name": "UpdateFeeRate",
      "type": "event"
    },
    {
      "inputs": [],
      "name": "DEFAULT_ADMIN_ROLE",
      "outputs": [
        {
          "internalType": "bytes32",
          "name": "",
          "type": "bytes32"
        }
      ],
      "stateMutability": "view",
      "type": "function"
    },
    {
      "inputs": [],
      "name": "PUSD",
      "outputs": [
        {
          "internalType": "contract IPellUSD",
          "name": "",
          "type": "address"
        }
      ],
      "stateMutability": "view",
      "type": "function"
    },
    {
      "inputs": [],
      "name": "acceptOwnership",
      "outputs": [],
      "stateMutability": "nonpayable",
      "type": "function"
    },
    {
      "inputs": [
        {
          "internalType": "address",
          "name": "custodian",
          "type": "address"
        }
      ],
      "name": "addCustodianAddress",
      "outputs": [],
      "stateMutability": "nonpayable",
      "type": "function"
    },
    {
      "inputs": [
        {
          "internalType": "address",
          "name": "asset",
          "type": "address"
        }
      ],
      "name": "addSupportedAsset",
      "outputs": [],
      "stateMutability": "nonpayable",
      "type": "function"
    },
    {
      "inputs": [
        {
          "internalType": "address",
          "name": "_collateralAsset",
          "type": "address"
        },
        {
          "internalType": "uint256",
          "name": "_collateralAmount",
          "type": "uint256"
        },
        {
          "internalType": "address",
          "name": "_custodianAddress",
          "type": "address"
        }
      ],
      "name": "buy",
      "outputs": [],
      "stateMutability": "nonpayable",
      "type": "function"
    },
    {
      "inputs": [
        {
          "internalType": "address",
          "name": "_collateralAsset",
          "type": "address"
        },
        {
          "internalType": "uint256",
          "name": "_collateralAmount",
          "type": "uint256"
        },
        {
          "internalType": "address",
          "name": "_custodianAddress",
          "type": "address"
        },
        {
          "internalType": "uint256",
          "name": "_deadline",
          "type": "uint256"
        },
        {
          "internalType": "uint8",
          "name": "_permitV",
          "type": "uint8"
        },
        {
          "internalType": "bytes32",
          "name": "_permitR",
          "type": "bytes32"
        },
        {
          "internalType": "bytes32",
          "name": "_permitS",
          "type": "bytes32"
        }
      ],
      "name": "buyWithPermit",
      "outputs": [],
      "stateMutability": "nonpayable",
      "type": "function"
    },
    {
      "inputs": [],
      "name": "feeRate",
      "outputs": [
        {
          "internalType": "uint256",
          "name": "",
          "type": "uint256"
        }
      ],
      "stateMutability": "view",
      "type": "function"
    },
    {
      "inputs": [
        {
          "internalType": "bytes32",
          "name": "role",
          "type": "bytes32"
        }
      ],
      "name": "getRoleAdmin",
      "outputs": [
        {
          "internalType": "bytes32",
          "name": "",
          "type": "bytes32"
        }
      ],
      "stateMutability": "view",
      "type": "function"
    },
    {
      "inputs": [
        {
          "internalType": "bytes32",
          "name": "role",
          "type": "bytes32"
        },
        {
          "internalType": "address",
          "name": "account",
          "type": "address"
        }
      ],
      "name": "grantRole",
      "outputs": [],
      "stateMutability": "nonpayable",
      "type": "function"
    },
    {
      "inputs": [
        {
          "internalType": "bytes32",
          "name": "role",
          "type": "bytes32"
        },
        {
          "internalType": "address",
          "name": "account",
          "type": "address"
        }
      ],
      "name": "hasRole",
      "outputs": [
        {
          "internalType": "bool",
          "name": "",
          "type": "bool"
        }
      ],
      "stateMutability": "view",
      "type": "function"
    },
    {
      "inputs": [
        {
          "internalType": "address",
          "name": "custodian",
          "type": "address"
        }
      ],
      "name": "isCustodianAddress",
      "outputs": [
        {
          "internalType": "bool",
          "name": "",
          "type": "bool"
        }
      ],
      "stateMutability": "view",
      "type": "function"
    },
    {
      "inputs": [
        {
          "internalType": "address",
          "name": "asset",
          "type": "address"
        }
      ],
      "name": "isSupportedAsset",
      "outputs": [
        {
          "internalType": "bool",
          "name": "",
          "type": "bool"
        }
      ],
      "stateMutability": "view",
      "type": "function"
    },
    {
      "inputs": [],
      "name": "listCustodians",
      "outputs": [
        {
          "internalType": "address[]",
          "name": "",
          "type": "address[]"
        }
      ],
      "stateMutability": "view",
      "type": "function"
    },
    {
      "inputs": [],
      "name": "listSupportedAssets",
      "outputs": [
        {
          "internalType": "address[]",
          "name": "",
          "type": "address[]"
        }
      ],
      "stateMutability": "view",
      "type": "function"
    },
    {
      "inputs": [],
      "name": "owner",
      "outputs": [
        {
          "internalType": "address",
          "name": "",
          "type": "address"
        }
      ],
      "stateMutability": "view",
      "type": "function"
    },
    {
      "inputs": [],
      "name": "pause",
      "outputs": [],
      "stateMutability": "nonpayable",
      "type": "function"
    },
    {
      "inputs": [],
      "name": "paused",
      "outputs": [
        {
          "internalType": "bool",
          "name": "",
          "type": "bool"
        }
      ],
      "stateMutability": "view",
      "type": "function"
    },
    {
      "inputs": [],
      "name": "pendingOwner",
      "outputs": [
        {
          "internalType": "address",
          "name": "",
          "type": "address"
        }
      ],
      "stateMutability": "view",
      "type": "function"
    },
    {
      "inputs": [
        {
          "internalType": "address",
          "name": "custodian",
          "type": "address"
        }
      ],
      "name": "removeCustodianAddress",
      "outputs": [],
      "stateMutability": "nonpayable",
      "type": "function"
    },
    {
      "inputs": [
        {
          "internalType": "address",
          "name": "asset",
          "type": "address"
        }
      ],
      "name": "removeSupportedAsset",
      "outputs": [],
      "stateMutability": "nonpayable",
      "type": "function"
    },
    {
      "inputs": [],
      "name": "renounceOwnership",
      "outputs": [],
      "stateMutability": "nonpayable",
      "type": "function"
    },
    {
      "inputs": [
        {
          "internalType": "bytes32",
          "name": "role",
          "type": "bytes32"
        },
        {
          "internalType": "address",
          "name": "account",
          "type": "address"
        }
      ],
      "name": "renounceRole",
      "outputs": [],
      "stateMutability": "nonpayable",
      "type": "function"
    },
    {
      "inputs": [
        {
          "internalType": "bytes32",
          "name": "role",
          "type": "bytes32"
        },
        {
          "internalType": "address",
          "name": "account",
          "type": "address"
        }
      ],
      "name": "revokeRole",
      "outputs": [],
      "stateMutability": "nonpayable",
      "type": "function"
    },
    {
      "inputs": [
        {
          "internalType": "bytes4",
          "name": "interfaceId",
          "type": "bytes4"
        }
      ],
      "name": "supportsInterface",
      "outputs": [
        {
          "internalType": "bool",
          "name": "",
          "type": "bool"
        }
      ],
      "stateMutability": "view",
      "type": "function"
    },
    {
      "inputs": [
        {
          "internalType": "address",
          "name": "newOwner",
          "type": "address"
        }
      ],
      "name": "transferOwnership",
      "outputs": [],
      "stateMutability": "nonpayable",
      "type": "function"
    },
    {
      "inputs": [],
      "name": "unpause",
      "outputs": [],
      "stateMutability": "nonpayable",
      "type": "function"
    },
    {
      "inputs": [
        {
          "internalType": "uint256",
          "name": "_rate",
          "type": "uint256"
        }
      ],
      "name": "updateFeeRate",
      "outputs": [],
      "stateMutability": "nonpayable",
      "type": "function"
    }
  ],
  "transactionHash": "0x9bb64290cb6844539da1be3c23fa136aa45111373a308e314e01ca00785a1b73",
  "args": [
    "0x527B39998d9112736Fc79B852fc87DCd6F9a3532",
    [
      "0xdfa211D4381da6055D7C10FF1Ddd6462e545b913"
    ],
    [
      "0x1Ee532cf775be02E0B306571e3555321FC75988d"
    ],
    "0xCDf40a96939014b1B14dE7A6aa395C3547294020"
  ],
  "numDeployments": 1,
  "solcInputHash": "4809229aca3c5ef4a04863cf8e3c93da",
  "bytecode": "0x60a06040523480156200001157600080fd5b50604051620026bd380380620026bd833981016040819052620000349162000541565b6200003f33620001dc565b6003805460ff191690556001600481905560408051808201909152908152603160f81b60208201526001600160a01b0385166200009a5760405162461bcd60e51b8152600401620000919190620005d5565b60405180910390fd5b5082516040805180820190915260018152603360f81b602082015290620000d65760405162461bcd60e51b8152600401620000919190620005d5565b506040805180820190915260018152603160f81b60208201526001600160a01b038216620001195760405162461bcd60e51b8152600401620000919190620005d5565b506001600160a01b03841660805260005b83518110156200017657620001618482815181106200014d576200014d62000625565b6020026020010151620001fa60201b60201c565b806200016d816200063b565b9150506200012a565b5060005b8251811015620001c657620001b18382815181106200019d576200019d62000625565b60200260200101516200029860201b60201c565b80620001bd816200063b565b9150506200017a565b50620001d281620001dc565b5050505062000663565b600180546001600160a01b0319169055620001f78162000336565b50565b6200020462000386565b6001600160a01b0381161580159062000225575062000225600582620003e4565b604051806040016040528060018152602001603560f81b81525090620002605760405162461bcd60e51b8152600401620000919190620005d5565b506040516001600160a01b038216907f0e3c58ebfb2e7465fbb1c32e6b4f40c3c4f5ca77e8218a386aff8617831260d790600090a250565b620002a262000386565b6001600160a01b03811615801590620002c35750620002c3600782620003e4565b604051806040016040528060018152602001600d60fa1b81525090620002fe5760405162461bcd60e51b8152600401620000919190620005d5565b506040516001600160a01b038216907ffbd30b5bdd51f5de989170dc23d65aac2de0a6099f5d9d200bc5779d883abcd490600090a250565b600080546001600160a01b038381166001600160a01b0319831681178455604051919092169283917f8be0079c531659141344cd1fd0a4f28419497f9722a3daafe3b4186f6b6457e09190a35050565b6000546001600160a01b03163314620003e25760405162461bcd60e51b815260206004820181905260248201527f4f776e61626c653a2063616c6c6572206973206e6f7420746865206f776e6572604482015260640162000091565b565b6000620003fb836001600160a01b03841662000404565b90505b92915050565b60008181526001830160205260408120546200044d57508154600181810184556000848152602080822090930184905584548482528286019093526040902091909155620003fe565b506000620003fe565b6001600160a01b0381168114620001f757600080fd5b634e487b7160e01b600052604160045260246000fd5b80516200048f8162000456565b919050565b600082601f830112620004a657600080fd5b815160206001600160401b0380831115620004c557620004c56200046c565b8260051b604051601f19603f83011681018181108482111715620004ed57620004ed6200046c565b6040529384528581018301938381019250878511156200050c57600080fd5b83870191505b848210156200053657620005268262000482565b8352918301919083019062000512565b979650505050505050565b600080600080608085870312156200055857600080fd5b8451620005658162000456565b60208601519094506001600160401b03808211156200058357600080fd5b620005918883890162000494565b94506040870151915080821115620005a857600080fd5b50620005b78782880162000494565b9250506060850151620005ca8162000456565b939692955090935050565b600060208083528351808285015260005b818110156200060457858101830151858201604001528201620005e6565b506000604082860101526040601f19601f8301168501019250505092915050565b634e487b7160e01b600052603260045260246000fd5b6000600182016200065c57634e487b7160e01b600052601160045260246000fd5b5060010190565b60805161203762000686600039600081816103820152610f9c01526120376000f3fe608060405234801561001057600080fd5b50600436106101c35760003560e01c80637b84fda5116100f9578063b9a57d0211610097578063db61c76e11610071578063db61c76e146103bf578063e30c3978146103d2578063f2fde38b146103e3578063fac09e87146103f657600080fd5b8063b9a57d021461037d578063c0cb2cc7146103a4578063d547741f146103ac57600080fd5b806391d14854116100d357806391d1485414610320578063978bbdb9146103595780639be918e614610362578063a217fddf1461037557600080fd5b80637b84fda5146102e05780638456cb59146102f35780638da5cb5b146102fb57600080fd5b80633f4ba83a116101665780635436ae9a116101405780635436ae9a146102b05780635c975abb146102c5578063715018a6146102d057806379ba5097146102d857600080fd5b80633f4ba83a146102825780634ba87af91461028a5780634be7a64b1461029d57600080fd5b80631cf58ff2116101a25780631cf58ff214610218578063248a9ca31461022b5780632f2ff15d1461025c57806336568abe1461026f57600080fd5b80628fbe5e146101c857806301ffc9a7146101dd5780631c46bc6f14610205575b600080fd5b6101db6101d6366004611b5c565b610409565b005b6101f06101eb366004611bc9565b61052b565b60405190151581526020015b60405180910390f35b6101db610213366004611c0b565b6105c4565b6101f0610226366004611c0b565b610647565b61024e610239366004611c26565b60009081526002602052604090206001015490565b6040519081526020016101fc565b6101db61026a366004611c3f565b610654565b6101db61027d366004611c3f565b61067e565b6101db61070a565b6101db610298366004611c0b565b61071c565b6101db6102ab366004611c0b565b61079f565b6102b8610835565b6040516101fc9190611c6b565b60035460ff166101f0565b6101db610846565b6101db610858565b6101db6102ee366004611c26565b6108e6565b6101db610987565b6000546001600160a01b03165b6040516001600160a01b0390911681526020016101fc565b6101f061032e366004611c3f565b60009182526002602090815260408084206001600160a01b0393909316845291905290205460ff1690565b61024e60095481565b6101f0610370366004611c0b565b610997565b61024e600081565b6103087f000000000000000000000000000000000000000000000000000000000000000081565b6102b86109a4565b6101db6103ba366004611c3f565b6109b0565b6101db6103cd366004611cb8565b6109d5565b6001546001600160a01b0316610308565b6101db6103f1366004611c0b565b610acc565b6101db610404366004611c0b565b610b4a565b610411610be0565b610419610c33565b610424600588610c8c565b604051806040016040528060018152602001603360f81b815250906104655760405162461bcd60e51b815260040161045c9190611d18565b60405180910390fd5b506040805180820190915260018152603760f81b60208201528661049c5760405162461bcd60e51b815260040161045c9190611d18565b506001600160a01b038516158015906104bb57506104bb600786610c8c565b604051806040016040528060018152602001600760fb1b815250906104f35760405162461bcd60e51b815260040161045c9190611d18565b5061050d6001600160a01b03881633308988888888610cb1565b610518878787610ebc565b6105226001600455565b50505050505050565b60007fffffffff0000000000000000000000000000000000000000000000000000000082167f7965db0b0000000000000000000000000000000000000000000000000000000014806105be57507f01ffc9a7000000000000000000000000000000000000000000000000000000007fffffffff000000000000000000000000000000000000000000000000000000008316145b92915050565b6105cc6110a2565b6105d76005826110fc565b604051806040016040528060018152602001603560f81b8152509061060f5760405162461bcd60e51b815260040161045c9190611d18565b506040516001600160a01b038216907f37803e2125c48ee96c38ddf04e826daf335b0e1603579040fd275aba6d06b6fc90600090a250565b60006105be600783610c8c565b60008281526002602052604090206001015461066f81611111565b610679838361111b565b505050565b6001600160a01b03811633146106fc5760405162461bcd60e51b815260206004820152602f60248201527f416363657373436f6e74726f6c3a2063616e206f6e6c792072656e6f756e636560448201527f20726f6c657320666f722073656c660000000000000000000000000000000000606482015260840161045c565b61070682826111bd565b5050565b6107126110a2565b61071a611240565b565b6107246110a2565b61072f6007826110fc565b604051806040016040528060018152602001600d60fa1b815250906107675760405162461bcd60e51b815260040161045c9190611d18565b506040516001600160a01b038216907f75567811df62a6b68bd5ee394d5808ad7282e19541858be466bc789cad9d4dfb90600090a250565b6107a76110a2565b6001600160a01b038116158015906107c557506107c5600782611292565b604051806040016040528060018152602001600d60fa1b815250906107fd5760405162461bcd60e51b815260040161045c9190611d18565b506040516001600160a01b038216907ffbd30b5bdd51f5de989170dc23d65aac2de0a6099f5d9d200bc5779d883abcd490600090a250565b606061084160056112a7565b905090565b61084e6110a2565b61071a60006112b4565b60015433906001600160a01b031681146108da5760405162461bcd60e51b815260206004820152602960248201527f4f776e61626c6532537465703a2063616c6c6572206973206e6f74207468652060448201527f6e6577206f776e65720000000000000000000000000000000000000000000000606482015260840161045c565b6108e3816112b4565b50565b6108ee6110a2565b60408051808201909152600181527f36000000000000000000000000000000000000000000000000000000000000006020820152620186a082106109455760405162461bcd60e51b815260040161045c9190611d18565b5060095460408051918252602082018390527f8d10d6dd6545b059182e4bf9534308bf75d7de65cdd8a68c12b7b74f139e58ae910160405180910390a1600955565b61098f6110a2565b61071a6112da565b60006105be600583610c8c565b606061084160076112a7565b6000828152600260205260409020600101546109cb81611111565b61067983836111bd565b6109dd610be0565b6109e5610c33565b6109f0600584610c8c565b604051806040016040528060018152602001603360f81b81525090610a285760405162461bcd60e51b815260040161045c9190611d18565b506040805180820190915260018152603760f81b602082015282610a5f5760405162461bcd60e51b815260040161045c9190611d18565b506001600160a01b03811615801590610a7e5750610a7e600782610c8c565b604051806040016040528060018152602001600760fb1b81525090610ab65760405162461bcd60e51b815260040161045c9190611d18565b50610ac2838383610ebc565b6106796001600455565b610ad46110a2565b600180546001600160a01b03831673ffffffffffffffffffffffffffffffffffffffff199091168117909155610b126000546001600160a01b031690565b6001600160a01b03167f38d16b8cac22d99fc7c124b9cd0de2d3fa1faef420bfe791d8c362d765e2270060405160405180910390a350565b610b526110a2565b6001600160a01b03811615801590610b705750610b70600582611292565b604051806040016040528060018152602001603560f81b81525090610ba85760405162461bcd60e51b815260040161045c9190611d18565b506040516001600160a01b038216907f0e3c58ebfb2e7465fbb1c32e6b4f40c3c4f5ca77e8218a386aff8617831260d790600090a250565b60035460ff161561071a5760405162461bcd60e51b815260206004820152601060248201527f5061757361626c653a2070617573656400000000000000000000000000000000604482015260640161045c565b600260045403610c855760405162461bcd60e51b815260206004820152601f60248201527f5265656e7472616e637947756172643a207265656e7472616e742063616c6c00604482015260640161045c565b6002600455565b6001600160a01b038116600090815260018301602052604081205415155b9392505050565b604051623f675f60e91b81526001600160a01b038881166004830152600091908a1690637ecebe0090602401602060405180830381865afa158015610cfa573d6000803e3d6000fd5b505050506040513d601f19601f82011682018060405250810190610d1e9190611d4b565b6040517fd505accf0000000000000000000000000000000000000000000000000000000081526001600160a01b038a811660048301528981166024830152604482018990526064820188905260ff8716608483015260a4820186905260c48201859052919250908a169063d505accf9060e401600060405180830381600087803b158015610dab57600080fd5b505af1158015610dbf573d6000803e3d6000fd5b5050604051623f675f60e91b81526001600160a01b038b81166004830152600093508c169150637ecebe0090602401602060405180830381865afa158015610e0b573d6000803e3d6000fd5b505050506040513d601f19601f82011682018060405250810190610e2f9190611d4b565b9050610e3c826001611d7a565b8114610eb05760405162461bcd60e51b815260206004820152602160248201527f5361666545524332303a207065726d697420646964206e6f742073756363656560448201527f6400000000000000000000000000000000000000000000000000000000000000606482015260840161045c565b50505050505050505050565b60095460009015610ee657620f424060095484610ed99190611d8d565b610ee39190611da4565b90505b610efb6001600160a01b038516338486611317565b6000846001600160a01b031663313ce5676040518163ffffffff1660e01b8152600401602060405180830381865afa158015610f3b573d6000803e3d6000fd5b505050506040513d601f19601f82011682018060405250810190610f5f9190611dc6565b610f6a90600a611ec7565b610f7c90670de0b6b3a7640000611da4565b610f868386611ed6565b610f909190611d8d565b90506001600160a01b037f0000000000000000000000000000000000000000000000000000000000000000166340c10f19336040517fffffffff0000000000000000000000000000000000000000000000000000000060e084901b1681526001600160a01b03909116600482015260248101849052604401600060405180830381600087803b15801561102257600080fd5b505af1158015611036573d6000803e3d6000fd5b50505050846001600160a01b03167f4b461d9a9aea87b2b40b13df93ed38aab114ba4d0ccef80735d239534532142d61106c3390565b604080516001600160a01b0390921682526020820188905281018490526060810185905260800160405180910390a25050505050565b6000546001600160a01b0316331461071a5760405162461bcd60e51b815260206004820181905260248201527f4f776e61626c653a2063616c6c6572206973206e6f7420746865206f776e6572604482015260640161045c565b6000610caa836001600160a01b0384166113a5565b6108e38133611498565b60008281526002602090815260408083206001600160a01b038516845290915290205460ff166107065760008281526002602090815260408083206001600160a01b03851684529091529020805460ff191660011790556111793390565b6001600160a01b0316816001600160a01b0316837f2f8788117e7eff1d82e926ec794901d17c78024a50270940304540a733656f0d60405160405180910390a45050565b60008281526002602090815260408083206001600160a01b038516845290915290205460ff16156107065760008281526002602090815260408083206001600160a01b0385168085529252808320805460ff1916905551339285917ff6391f5c32d9c69d2a47ea670b442974b53935d1edc7fd64eb21e047a839171b9190a45050565b61124861150d565b6003805460ff191690557f5db9ee0a495bf2e6ff9c91a7834c1ba4fdd244a5e8aa4e537bd38aeae4b073aa335b6040516001600160a01b03909116815260200160405180910390a1565b6000610caa836001600160a01b03841661155f565b60606000610caa836115ae565b6001805473ffffffffffffffffffffffffffffffffffffffff191690556108e38161160a565b6112e2610be0565b6003805460ff191660011790557f62e78cea01bee320cd4e420270b5ea74000d11b0c9f74754ebdbfc544b05a2586112753390565b604080516001600160a01b0385811660248301528416604482015260648082018490528251808303909101815260849091019091526020810180517bffffffffffffffffffffffffffffffffffffffffffffffffffffffff167f23b872dd0000000000000000000000000000000000000000000000000000000017905261139f908590611667565b50505050565b6000818152600183016020526040812054801561148e5760006113c9600183611ed6565b85549091506000906113dd90600190611ed6565b90508181146114425760008660000182815481106113fd576113fd611ee9565b906000526020600020015490508087600001848154811061142057611420611ee9565b6000918252602080832090910192909255918252600188019052604090208390555b855486908061145357611453611eff565b6001900381819060005260206000200160009055905585600101600086815260200190815260200160002060009055600193505050506105be565b60009150506105be565b60008281526002602090815260408083206001600160a01b038516845290915290205460ff16610706576114cb8161174f565b6114d6836020611761565b6040516020016114e7929190611f15565b60408051601f198184030181529082905262461bcd60e51b825261045c91600401611d18565b60035460ff1661071a5760405162461bcd60e51b815260206004820152601460248201527f5061757361626c653a206e6f7420706175736564000000000000000000000000604482015260640161045c565b60008181526001830160205260408120546115a6575081546001818101845560008481526020808220909301849055845484825282860190935260409020919091556105be565b5060006105be565b6060816000018054806020026020016040519081016040528092919081815260200182805480156115fe57602002820191906000526020600020905b8154815260200190600101908083116115ea575b50505050509050919050565b600080546001600160a01b0383811673ffffffffffffffffffffffffffffffffffffffff19831681178455604051919092169283917f8be0079c531659141344cd1fd0a4f28419497f9722a3daafe3b4186f6b6457e09190a35050565b60006116bc826040518060400160405280602081526020017f5361666545524332303a206c6f772d6c6576656c2063616c6c206661696c6564815250856001600160a01b031661198a9092919063ffffffff16565b90508051600014806116dd5750808060200190518101906116dd9190611f96565b6106795760405162461bcd60e51b815260206004820152602a60248201527f5361666545524332303a204552433230206f7065726174696f6e20646964206e60448201527f6f74207375636365656400000000000000000000000000000000000000000000606482015260840161045c565b60606105be6001600160a01b03831660145b60606000611770836002611d8d565b61177b906002611d7a565b67ffffffffffffffff81111561179357611793611fb8565b6040519080825280601f01601f1916602001820160405280156117bd576020820181803683370190505b5090507f3000000000000000000000000000000000000000000000000000000000000000816000815181106117f4576117f4611ee9565b60200101907effffffffffffffffffffffffffffffffffffffffffffffffffffffffffffff1916908160001a9053507f78000000000000000000000000000000000000000000000000000000000000008160018151811061185757611857611ee9565b60200101907effffffffffffffffffffffffffffffffffffffffffffffffffffffffffffff1916908160001a9053506000611893846002611d8d565b61189e906001611d7a565b90505b600181111561193b577f303132333435363738396162636465660000000000000000000000000000000085600f16601081106118df576118df611ee9565b1a60f81b8282815181106118f5576118f5611ee9565b60200101907effffffffffffffffffffffffffffffffffffffffffffffffffffffffffffff1916908160001a90535060049490941c9361193481611fce565b90506118a1565b508315610caa5760405162461bcd60e51b815260206004820181905260248201527f537472696e67733a20686578206c656e67746820696e73756666696369656e74604482015260640161045c565b606061199984846000856119a1565b949350505050565b606082471015611a195760405162461bcd60e51b815260206004820152602660248201527f416464726573733a20696e73756666696369656e742062616c616e636520666f60448201527f722063616c6c0000000000000000000000000000000000000000000000000000606482015260840161045c565b600080866001600160a01b03168587604051611a359190611fe5565b60006040518083038185875af1925050503d8060008114611a72576040519150601f19603f3d011682016040523d82523d6000602084013e611a77565b606091505b5091509150611a8887838387611a93565b979650505050505050565b60608315611b02578251600003611afb576001600160a01b0385163b611afb5760405162461bcd60e51b815260206004820152601d60248201527f416464726573733a2063616c6c20746f206e6f6e2d636f6e7472616374000000604482015260640161045c565b5081611999565b6119998383815115611b175781518083602001fd5b8060405162461bcd60e51b815260040161045c9190611d18565b80356001600160a01b0381168114611b4857600080fd5b919050565b60ff811681146108e357600080fd5b600080600080600080600060e0888a031215611b7757600080fd5b611b8088611b31565b965060208801359550611b9560408901611b31565b9450606088013593506080880135611bac81611b4d565b9699959850939692959460a0840135945060c09093013592915050565b600060208284031215611bdb57600080fd5b81357fffffffff0000000000000000000000000000000000000000000000000000000081168114610caa57600080fd5b600060208284031215611c1d57600080fd5b610caa82611b31565b600060208284031215611c3857600080fd5b5035919050565b60008060408385031215611c5257600080fd5b82359150611c6260208401611b31565b90509250929050565b6020808252825182820181905260009190848201906040850190845b81811015611cac5783516001600160a01b031683529284019291840191600101611c87565b50909695505050505050565b600080600060608486031215611ccd57600080fd5b611cd684611b31565b925060208401359150611ceb60408501611b31565b90509250925092565b60005b83811015611d0f578181015183820152602001611cf7565b50506000910152565b6020815260008251806020840152611d37816040850160208701611cf4565b601f01601f19169190910160400192915050565b600060208284031215611d5d57600080fd5b5051919050565b634e487b7160e01b600052601160045260246000fd5b808201808211156105be576105be611d64565b80820281158282048414176105be576105be611d64565b600082611dc157634e487b7160e01b600052601260045260246000fd5b500490565b600060208284031215611dd857600080fd5b8151610caa81611b4d565b600181815b80851115611e1e578160001904821115611e0457611e04611d64565b80851615611e1157918102915b93841c9390800290611de8565b509250929050565b600082611e35575060016105be565b81611e42575060006105be565b8160018114611e585760028114611e6257611e7e565b60019150506105be565b60ff841115611e7357611e73611d64565b50506001821b6105be565b5060208310610133831016604e8410600b8410161715611ea1575081810a6105be565b611eab8383611de3565b8060001904821115611ebf57611ebf611d64565b029392505050565b6000610caa60ff841683611e26565b818103818111156105be576105be611d64565b634e487b7160e01b600052603260045260246000fd5b634e487b7160e01b600052603160045260246000fd5b7f416363657373436f6e74726f6c3a206163636f756e7420000000000000000000815260008351611f4d816017850160208801611cf4565b7f206973206d697373696e6720726f6c65200000000000000000000000000000006017918401918201528351611f8a816028840160208801611cf4565b01602801949350505050565b600060208284031215611fa857600080fd5b81518015158114610caa57600080fd5b634e487b7160e01b600052604160045260246000fd5b600081611fdd57611fdd611d64565b506000190190565b60008251611ff7818460208701611cf4565b919091019291505056fea2646970667358221220cb223ea228044e6a51c27c407a6d64d093de1c9761eaa64b474514176ac0203664736f6c63430008140033",
  "devdoc": {
    "events": {
      "Paused(address)": {
        "details": "Emitted when the pause is triggered by `account`."
      },
      "RoleAdminChanged(bytes32,bytes32,bytes32)": {
        "details": "Emitted when `newAdminRole` is set as ``role``'s admin role, replacing `previousAdminRole` `DEFAULT_ADMIN_ROLE` is the starting admin for all roles, despite {RoleAdminChanged} not being emitted signaling this. _Available since v3.1._"
      },
      "RoleGranted(bytes32,address,address)": {
        "details": "Emitted when `account` is granted `role`. `sender` is the account that originated the contract call, an admin role bearer except when using {AccessControl-_setupRole}."
      },
      "RoleRevoked(bytes32,address,address)": {
        "details": "Emitted when `account` is revoked `role`. `sender` is the account that originated the contract call:   - if using `revokeRole`, it is the admin role bearer   - if using `renounceRole`, it is the role bearer (i.e. `account`)"
      },
      "Unpaused(address)": {
        "details": "Emitted when the pause is lifted by `account`."
      }
    },
    "kind": "dev",
    "methods": {
      "acceptOwnership()": {
        "details": "The new owner accepts the ownership transfer."
      },
      "addCustodianAddress(address)": {
        "params": {
          "custodian": "Custody address"
        }
      },
      "addSupportedAsset(address)": {
        "params": {
          "asset": "Support asset"
        }
      },
      "buy(address,uint256,address)": {
        "params": {
          "_collateralAmount": "Collateral asset amount",
          "_collateralAsset": "Collateral asset address",
          "_custodianAddress": "Custodian address"
        }
      },
      "buyWithPermit(address,uint256,address,uint256,uint8,bytes32,bytes32)": {
        "params": {
          "_collateralAmount": "Collateral asset amount",
          "_collateralAsset": "Collateral asset address",
          "_custodianAddress": "Custodian address",
          "_deadline": "Deadline",
          "_permitR": "R",
          "_permitS": "S",
          "_permitV": "V"
        }
      },
      "getRoleAdmin(bytes32)": {
        "details": "Returns the admin role that controls `role`. See {grantRole} and {revokeRole}. To change a role's admin, use {_setRoleAdmin}."
      },
      "grantRole(bytes32,address)": {
        "details": "Grants `role` to `account`. If `account` had not been already granted `role`, emits a {RoleGranted} event. Requirements: - the caller must have ``role``'s admin role. May emit a {RoleGranted} event."
      },
      "hasRole(bytes32,address)": {
        "details": "Returns `true` if `account` has been granted `role`."
      },
      "isCustodianAddress(address)": {
        "params": {
          "custodian": "Custodian address"
        }
      },
      "isSupportedAsset(address)": {
        "params": {
          "asset": "Support asset"
        }
      },
      "owner()": {
        "details": "Returns the address of the current owner."
      },
      "pause()": {
        "details": "Pauses contract functionality."
      },
      "paused()": {
        "details": "Returns true if the contract is paused, and false otherwise."
      },
      "pendingOwner()": {
        "details": "Returns the address of the pending owner."
      },
      "removeCustodianAddress(address)": {
        "params": {
          "custodian": "Custody address"
        }
      },
      "removeSupportedAsset(address)": {
        "params": {
          "asset": "Support asset"
        }
      },
      "renounceOwnership()": {
        "details": "Leaves the contract without owner. It will not be possible to call `onlyOwner` functions. Can only be called by the current owner. NOTE: Renouncing ownership will leave the contract without an owner, thereby disabling any functionality that is only available to the owner."
      },
      "renounceRole(bytes32,address)": {
        "details": "Revokes `role` from the calling account. Roles are often managed via {grantRole} and {revokeRole}: this function's purpose is to provide a mechanism for accounts to lose their privileges if they are compromised (such as when a trusted device is misplaced). If the calling account had been revoked `role`, emits a {RoleRevoked} event. Requirements: - the caller must be `account`. May emit a {RoleRevoked} event."
      },
      "revokeRole(bytes32,address)": {
        "details": "Revokes `role` from `account`. If `account` had been granted `role`, emits a {RoleRevoked} event. Requirements: - the caller must have ``role``'s admin role. May emit a {RoleRevoked} event."
      },
      "supportsInterface(bytes4)": {
        "details": "See {IERC165-supportsInterface}."
      },
      "transferOwnership(address)": {
        "details": "Starts the ownership transfer of the contract to a new account. Replaces the pending transfer if there is one. Can only be called by the current owner."
      },
      "unpause()": {
        "details": "Unpauses contract functionality."
      },
      "updateFeeRate(uint256)": {
        "details": "Update the buy fee rate.Only callable by addresses with the owner.",
        "params": {
          "_rate": "The new buy fee rate."
        }
      }
    },
    "title": "Pell USD Sales",
    "version": 1
  },
  "userdoc": {
    "kind": "user",
    "methods": {
      "PUSD()": {
        "notice": "PUSD stablecoin"
      },
      "addCustodianAddress(address)": {
        "notice": "Adds an custodian to the supported custodians list."
      },
      "addSupportedAsset(address)": {
        "notice": "Adds an asset to the supported assets list."
      },
      "buy(address,uint256,address)": {
        "notice": "Purchase PUSD through supported stablecoins"
      },
      "buyWithPermit(address,uint256,address,uint256,uint8,bytes32,bytes32)": {
        "notice": "Purchase PUSD through supported stablecoins"
      },
      "isCustodianAddress(address)": {
        "notice": "Checks if an asset is custodian."
      },
      "isSupportedAsset(address)": {
        "notice": "Checks if an asset is supported."
      },
      "pause()": {
        "notice": "Only callable by addresses with the owner."
      },
      "removeCustodianAddress(address)": {
        "notice": "Removes an custodian from the custodian address list"
      },
      "removeSupportedAsset(address)": {
        "notice": "Removes an asset from the supported assets list"
      },
      "unpause()": {
        "notice": "Only callable by addresses with the owner."
      }
    },
    "version": 1
  },
  "storageLayout": {
    "storage": [
      {
        "astId": 396,
        "contract": "contracts/tokens/PUSDSales.sol:PUSDSales",
        "label": "_owner",
        "offset": 0,
        "slot": "0",
        "type": "t_address"
      },
      {
        "astId": 509,
        "contract": "contracts/tokens/PUSDSales.sol:PUSDSales",
        "label": "_pendingOwner",
        "offset": 0,
        "slot": "1",
        "type": "t_address"
      },
      {
        "astId": 24,
        "contract": "contracts/tokens/PUSDSales.sol:PUSDSales",
        "label": "_roles",
        "offset": 0,
        "slot": "2",
        "type": "t_mapping(t_bytes32,t_struct(RoleData)19_storage)"
      },
      {
        "astId": 627,
        "contract": "contracts/tokens/PUSDSales.sol:PUSDSales",
        "label": "_paused",
        "offset": 0,
        "slot": "3",
        "type": "t_bool"
      },
      {
        "astId": 728,
        "contract": "contracts/tokens/PUSDSales.sol:PUSDSales",
        "label": "_status",
        "offset": 0,
        "slot": "4",
        "type": "t_uint256"
      },
      {
        "astId": 6536,
        "contract": "contracts/tokens/PUSDSales.sol:PUSDSales",
        "label": "_supportedAssets",
        "offset": 0,
        "slot": "5",
        "type": "t_struct(AddressSet)4995_storage"
      },
      {
        "astId": 6539,
        "contract": "contracts/tokens/PUSDSales.sol:PUSDSales",
        "label": "_custodianAddresses",
        "offset": 0,
        "slot": "7",
        "type": "t_struct(AddressSet)4995_storage"
      },
      {
        "astId": 6541,
        "contract": "contracts/tokens/PUSDSales.sol:PUSDSales",
        "label": "feeRate",
        "offset": 0,
        "slot": "9",
        "type": "t_uint256"
      }
    ],
    "types": {
      "t_address": {
        "encoding": "inplace",
        "label": "address",
        "numberOfBytes": "20"
      },
      "t_array(t_bytes32)dyn_storage": {
        "base": "t_bytes32",
        "encoding": "dynamic_array",
        "label": "bytes32[]",
        "numberOfBytes": "32"
      },
      "t_bool": {
        "encoding": "inplace",
        "label": "bool",
        "numberOfBytes": "1"
      },
      "t_bytes32": {
        "encoding": "inplace",
        "label": "bytes32",
        "numberOfBytes": "32"
      },
      "t_mapping(t_address,t_bool)": {
        "encoding": "mapping",
        "key": "t_address",
        "label": "mapping(address => bool)",
        "numberOfBytes": "32",
        "value": "t_bool"
      },
      "t_mapping(t_bytes32,t_struct(RoleData)19_storage)": {
        "encoding": "mapping",
        "key": "t_bytes32",
        "label": "mapping(bytes32 => struct AccessControl.RoleData)",
        "numberOfBytes": "32",
        "value": "t_struct(RoleData)19_storage"
      },
      "t_mapping(t_bytes32,t_uint256)": {
        "encoding": "mapping",
        "key": "t_bytes32",
        "label": "mapping(bytes32 => uint256)",
        "numberOfBytes": "32",
        "value": "t_uint256"
      },
      "t_struct(AddressSet)4995_storage": {
        "encoding": "inplace",
        "label": "struct EnumerableSet.AddressSet",
        "members": [
          {
            "astId": 4994,
            "contract": "contracts/tokens/PUSDSales.sol:PUSDSales",
            "label": "_inner",
            "offset": 0,
            "slot": "0",
            "type": "t_struct(Set)4680_storage"
          }
        ],
        "numberOfBytes": "64"
      },
      "t_struct(RoleData)19_storage": {
        "encoding": "inplace",
        "label": "struct AccessControl.RoleData",
        "members": [
          {
            "astId": 16,
            "contract": "contracts/tokens/PUSDSales.sol:PUSDSales",
            "label": "members",
            "offset": 0,
            "slot": "0",
            "type": "t_mapping(t_address,t_bool)"
          },
          {
            "astId": 18,
            "contract": "contracts/tokens/PUSDSales.sol:PUSDSales",
            "label": "adminRole",
            "offset": 0,
            "slot": "1",
            "type": "t_bytes32"
          }
        ],
        "numberOfBytes": "64"
      },
      "t_struct(Set)4680_storage": {
        "encoding": "inplace",
        "label": "struct EnumerableSet.Set",
        "members": [
          {
            "astId": 4675,
            "contract": "contracts/tokens/PUSDSales.sol:PUSDSales",
            "label": "_values",
            "offset": 0,
            "slot": "0",
            "type": "t_array(t_bytes32)dyn_storage"
          },
          {
            "astId": 4679,
            "contract": "contracts/tokens/PUSDSales.sol:PUSDSales",
            "label": "_indexes",
            "offset": 0,
            "slot": "1",
            "type": "t_mapping(t_bytes32,t_uint256)"
          }
        ],
        "numberOfBytes": "64"
      },
      "t_uint256": {
        "encoding": "inplace",
        "label": "uint256",
        "numberOfBytes": "32"
      }
    }
  }
}