{
  "address": "0x1f087951d2f57861287d99632f34183B0eeCA881",
  "abi": [
    {
      "inputs": [],
      "name": "foo",
      "outputs": [],
      "stateMutability": "nonpayable",
      "type": "function"
    }
  ],
  "transactionHash": "0xefbdb8f6c31c45889a6316b4d22536152f3a3b2ddb0102207525282f5c7be190",
  "args": [],
  "numDeployments": 1,
  "solcInputHash": "3cca4218db691b482b06499ebff820f0",
  "bytecode": "0x6080604052348015600f57600080fd5b50606580601d6000396000f3fe6080604052348015600f57600080fd5b506004361060285760003560e01c8063c298557814602d575b600080fd5b00fea2646970667358221220951ec01a6fcd48084beaba14e9192c2fe34ea825b59ce824ba40ccc85727e8f464736f6c63430008140033",
  "devdoc": {
    "kind": "dev",
    "methods": {},
    "version": 1
  },
  "userdoc": {
    "kind": "user",
    "methods": {},
    "version": 1
  },
  "storageLayout": {
    "storage": [],
    "types": null
  }
}