{
  "address": "0xEa42f266A18DCf86A9010e3Ed1303FC24243A478",
  "abi": [
    {
      "inputs": [],
      "name": "foo",
      "outputs": [
        {
          "internalType": "uint256",
          "name": "",
          "type": "uint256"
        }
      ],
      "stateMutability": "pure",
      "type": "function"
    }
  ],
  "transactionHash": "0x5e6d0220b65fd5f1621ddc13aa78761af95b688dc99f9f8ef6e44b6ed77beadc",
  "args": [],
  "numDeployments": 1,
  "solcInputHash": "d2ebf111a34fa0c3adb8671cdb4bd05a",
  "bytecode": "0x6080604052348015600f57600080fd5b50607780601d6000396000f3fe6080604052348015600f57600080fd5b506004361060285760003560e01c8063c298557814602d575b600080fd5b600060405190815260200160405180910390f3fea264697066735822122003fed22d4cc5f0086a012c3e72543ec46220f2876c1436df84c7ecb5071def6164736f6c63430008140033",
  "devdoc": {
    "kind": "dev",
    "methods": {},
    "version": 1
  },
  "userdoc": {
    "kind": "user",
    "methods": {},
    "version": 1
  },
  "storageLayout": {
    "storage": [],
    "types": null
  }
}