{
  "address": "0x45e9199A8B62a761A0a1f5FC2B8aB5d184e7289B",
  "abi": [
    {
      "inputs": [
        {
          "internalType": "contract IPellUSD",
          "name": "_pusd",
          "type": "address"
        },
        {
          "internalType": "address",
          "name": "_vault",
          "type": "address"
        },
        {
          "internalType": "address[]",
          "name": "_assets",
          "type": "address[]"
        },
        {
          "internalType": "address",
          "name": "_initialOwner",
          "type": "address"
        }
      ],
      "stateMutability": "nonpayable",
      "type": "constructor"
    },
    {
      "anonymous": false,
      "inputs": [
        {
          "indexed": true,
          "internalType": "address",
          "name": "asset",
          "type": "address"
        }
      ],
      "name": "AssetAdded",
      "type": "event"
    },
    {
      "anonymous": false,
      "inputs": [
        {
          "indexed": true,
          "internalType": "address",
          "name": "asset",
          "type": "address"
        }
      ],
      "name": "AssetRemoved",
      "type": "event"
    },
    {
      "anonymous": false,
      "inputs": [
        {
          "indexed": true,
          "internalType": "address",
          "name": "account",
          "type": "address"
        },
        {
          "indexed": true,
          "internalType": "address",
          "name": "claimAsset",
          "type": "address"
        },
        {
          "indexed": false,
          "internalType": "uint256",
          "name": "claimAmount",
          "type": "uint256"
        }
      ],
      "name": "Claim",
      "type": "event"
    },
    {
      "anonymous": false,
      "inputs": [
        {
          "indexed": false,
          "internalType": "uint256",
          "name": "oldCooldown",
          "type": "uint256"
        },
        {
          "indexed": false,
          "internalType": "uint256",
          "name": "newCooldown",
          "type": "uint256"
        }
      ],
      "name": "CooldownSet",
      "type": "event"
    },
    {
      "anonymous": false,
      "inputs": [
        {
          "indexed": true,
          "internalType": "address",
          "name": "previousOwner",
          "type": "address"
        },
        {
          "indexed": true,
          "internalType": "address",
          "name": "newOwner",
          "type": "address"
        }
      ],
      "name": "OwnershipTransferStarted",
      "type": "event"
    },
    {
      "anonymous": false,
      "inputs": [
        {
          "indexed": true,
          "internalType": "address",
          "name": "previousOwner",
          "type": "address"
        },
        {
          "indexed": true,
          "internalType": "address",
          "name": "newOwner",
          "type": "address"
        }
      ],
      "name": "OwnershipTransferred",
      "type": "event"
    },
    {
      "anonymous": false,
      "inputs": [
        {
          "indexed": false,
          "internalType": "address",
          "name": "account",
          "type": "address"
        }
      ],
      "name": "Paused",
      "type": "event"
    },
    {
      "anonymous": false,
      "inputs": [
        {
          "indexed": true,
          "internalType": "address",
          "name": "account",
          "type": "address"
        },
        {
          "indexed": true,
          "internalType": "address",
          "name": "redeemAsset",
          "type": "address"
        },
        {
          "indexed": false,
          "internalType": "uint256",
          "name": "redeemAssetAmount",
          "type": "uint256"
        },
        {
          "indexed": false,
          "internalType": "uint256",
          "name": "pusdAmount",
          "type": "uint256"
        },
        {
          "indexed": false,
          "internalType": "uint256",
          "name": "fee",
          "type": "uint256"
        }
      ],
      "name": "Redeem",
      "type": "event"
    },
    {
      "anonymous": false,
      "inputs": [
        {
          "indexed": false,
          "internalType": "address",
          "name": "account",
          "type": "address"
        }
      ],
      "name": "Unpaused",
      "type": "event"
    },
    {
      "anonymous": false,
      "inputs": [
        {
          "indexed": false,
          "internalType": "uint256",
          "name": "oldFeeRate",
          "type": "uint256"
        },
        {
          "indexed": false,
          "internalType": "uint256",
          "name": "newFeeRate",
          "type": "uint256"
        }
      ],
      "name": "UpdateFeeRate",
      "type": "event"
    },
    {
      "anonymous": false,
      "inputs": [
        {
          "indexed": false,
          "internalType": "uint256",
          "name": "oldMaxRedeem",
          "type": "uint256"
        },
        {
          "indexed": false,
          "internalType": "uint256",
          "name": "newMaxRedeem",
          "type": "uint256"
        }
      ],
      "name": "UpdateMaxPerRedeem",
      "type": "event"
    },
    {
      "anonymous": false,
      "inputs": [
        {
          "indexed": false,
          "internalType": "address",
          "name": "oldVault",
          "type": "address"
        },
        {
          "indexed": false,
          "internalType": "address",
          "name": "newVault",
          "type": "address"
        }
      ],
      "name": "UpdatedVault",
      "type": "event"
    },
    {
      "inputs": [],
      "name": "PUSD",
      "outputs": [
        {
          "internalType": "contract IPellUSD",
          "name": "",
          "type": "address"
        }
      ],
      "stateMutability": "view",
      "type": "function"
    },
    {
      "inputs": [],
      "name": "acceptOwnership",
      "outputs": [],
      "stateMutability": "nonpayable",
      "type": "function"
    },
    {
      "inputs": [
        {
          "internalType": "address",
          "name": "_asset",
          "type": "address"
        }
      ],
      "name": "addSupportedAsset",
      "outputs": [],
      "stateMutability": "nonpayable",
      "type": "function"
    },
    {
      "inputs": [
        {
          "internalType": "address",
          "name": "_assetToken",
          "type": "address"
        }
      ],
      "name": "claim",
      "outputs": [],
      "stateMutability": "nonpayable",
      "type": "function"
    },
    {
      "inputs": [],
      "name": "cooldownDuration",
      "outputs": [
        {
          "internalType": "uint24",
          "name": "",
          "type": "uint24"
        }
      ],
      "stateMutability": "view",
      "type": "function"
    },
    {
      "inputs": [],
      "name": "feeRate",
      "outputs": [
        {
          "internalType": "uint256",
          "name": "",
          "type": "uint256"
        }
      ],
      "stateMutability": "view",
      "type": "function"
    },
    {
      "inputs": [
        {
          "internalType": "address",
          "name": "_asset",
          "type": "address"
        }
      ],
      "name": "isSupportedAsset",
      "outputs": [
        {
          "internalType": "bool",
          "name": "",
          "type": "bool"
        }
      ],
      "stateMutability": "view",
      "type": "function"
    },
    {
      "inputs": [],
      "name": "listSupportedAssets",
      "outputs": [
        {
          "internalType": "address[]",
          "name": "",
          "type": "address[]"
        }
      ],
      "stateMutability": "view",
      "type": "function"
    },
    {
      "inputs": [],
      "name": "maxPerRedeem",
      "outputs": [
        {
          "internalType": "uint256",
          "name": "",
          "type": "uint256"
        }
      ],
      "stateMutability": "view",
      "type": "function"
    },
    {
      "inputs": [],
      "name": "owner",
      "outputs": [
        {
          "internalType": "address",
          "name": "",
          "type": "address"
        }
      ],
      "stateMutability": "view",
      "type": "function"
    },
    {
      "inputs": [],
      "name": "pause",
      "outputs": [],
      "stateMutability": "nonpayable",
      "type": "function"
    },
    {
      "inputs": [],
      "name": "paused",
      "outputs": [
        {
          "internalType": "bool",
          "name": "",
          "type": "bool"
        }
      ],
      "stateMutability": "view",
      "type": "function"
    },
    {
      "inputs": [],
      "name": "pendingOwner",
      "outputs": [
        {
          "internalType": "address",
          "name": "",
          "type": "address"
        }
      ],
      "stateMutability": "view",
      "type": "function"
    },
    {
      "inputs": [
        {
          "internalType": "address",
          "name": "_assetToken",
          "type": "address"
        },
        {
          "internalType": "uint256",
          "name": "_pusdAmount",
          "type": "uint256"
        }
      ],
      "name": "redeem",
      "outputs": [],
      "stateMutability": "nonpayable",
      "type": "function"
    },
    {
      "inputs": [
        {
          "internalType": "address",
          "name": "_assetToken",
          "type": "address"
        },
        {
          "internalType": "uint256",
          "name": "_pusdAmount",
          "type": "uint256"
        },
        {
          "internalType": "uint256",
          "name": "_deadline",
          "type": "uint256"
        },
        {
          "internalType": "uint8",
          "name": "_permitV",
          "type": "uint8"
        },
        {
          "internalType": "bytes32",
          "name": "_permitR",
          "type": "bytes32"
        },
        {
          "internalType": "bytes32",
          "name": "_permitS",
          "type": "bytes32"
        }
      ],
      "name": "redeemWithPermit",
      "outputs": [],
      "stateMutability": "nonpayable",
      "type": "function"
    },
    {
      "inputs": [
        {
          "internalType": "address",
          "name": "",
          "type": "address"
        },
        {
          "internalType": "uint256",
          "name": "",
          "type": "uint256"
        }
      ],
      "name": "redemptionHistory",
      "outputs": [
        {
          "internalType": "uint256",
          "name": "",
          "type": "uint256"
        }
      ],
      "stateMutability": "view",
      "type": "function"
    },
    {
      "inputs": [
        {
          "internalType": "address",
          "name": "",
          "type": "address"
        },
        {
          "internalType": "address",
          "name": "",
          "type": "address"
        }
      ],
      "name": "redemptions",
      "outputs": [
        {
          "internalType": "uint256",
          "name": "cooldownEnd",
          "type": "uint256"
        },
        {
          "internalType": "uint256",
          "name": "underlingAmount",
          "type": "uint256"
        },
        {
          "internalType": "uint256",
          "name": "pusdAmount",
          "type": "uint256"
        }
      ],
      "stateMutability": "view",
      "type": "function"
    },
    {
      "inputs": [
        {
          "internalType": "address",
          "name": "_asset",
          "type": "address"
        }
      ],
      "name": "removeSupportedAsset",
      "outputs": [],
      "stateMutability": "nonpayable",
      "type": "function"
    },
    {
      "inputs": [],
      "name": "renounceOwnership",
      "outputs": [],
      "stateMutability": "nonpayable",
      "type": "function"
    },
    {
      "inputs": [
        {
          "internalType": "address",
          "name": "_token",
          "type": "address"
        },
        {
          "internalType": "address",
          "name": "_to",
          "type": "address"
        },
        {
          "internalType": "uint256",
          "name": "_amount",
          "type": "uint256"
        }
      ],
      "name": "rescueTokens",
      "outputs": [],
      "stateMutability": "nonpayable",
      "type": "function"
    },
    {
      "inputs": [
        {
          "internalType": "uint24",
          "name": "_cooldownDuration",
          "type": "uint24"
        }
      ],
      "name": "setCooldownDuration",
      "outputs": [],
      "stateMutability": "nonpayable",
      "type": "function"
    },
    {
      "inputs": [
        {
          "internalType": "address",
          "name": "newOwner",
          "type": "address"
        }
      ],
      "name": "transferOwnership",
      "outputs": [],
      "stateMutability": "nonpayable",
      "type": "function"
    },
    {
      "inputs": [],
      "name": "unpause",
      "outputs": [],
      "stateMutability": "nonpayable",
      "type": "function"
    },
    {
      "inputs": [
        {
          "internalType": "uint256",
          "name": "_feeRate",
          "type": "uint256"
        }
      ],
      "name": "updateFeeRate",
      "outputs": [],
      "stateMutability": "nonpayable",
      "type": "function"
    },
    {
      "inputs": [
        {
          "internalType": "uint256",
          "name": "_maxRedeem",
          "type": "uint256"
        }
      ],
      "name": "updateMaxPerRedeem",
      "outputs": [],
      "stateMutability": "nonpayable",
      "type": "function"
    },
    {
      "inputs": [
        {
          "internalType": "address",
          "name": "_vault",
          "type": "address"
        }
      ],
      "name": "updateVault",
      "outputs": [],
      "stateMutability": "nonpayable",
      "type": "function"
    },
    {
      "inputs": [],
      "name": "vault",
      "outputs": [
        {
          "internalType": "address",
          "name": "",
          "type": "address"
        }
      ],
      "stateMutability": "view",
      "type": "function"
    }
  ],
  "transactionHash": "0x9d5e32ad068b518a4cec277c7ab1fab1a8e5d087f4bdfab746dcb194eba37559",
  "args": [
    "0x1F90b9f56d6C53f937B7B4f579b3f413A20A1b44",
    "0x0000000000000000000000000000000000000000",
    [
      "0x7C346C27Ef3A48B1AE0454D994A49005C720D6FA"
    ],
    "0x1Ee532cf775be02E0B306571e3555321FC75988d"
  ],
  "numDeployments": 1,
  "solcInputHash": "4809229aca3c5ef4a04863cf8e3c93da",
  "bytecode": "0x60a06040523480156200001157600080fd5b50604051620025c6380380620025c68339810160408190526200003491620003e1565b6200003f33620001c7565b6001805460ff60a01b19168155600281905560408051808201909152908152603160f81b60208201526001600160a01b0385166200009b5760405162461bcd60e51b8152600401620000929190620004f4565b60405180910390fd5b5081516040805180820190915260018152603360f81b602082015290620000d75760405162461bcd60e51b8152600401620000929190620004f4565b506040805180820190915260018152603160f81b60208201526001600160a01b0382166200011a5760405162461bcd60e51b8152600401620000929190620004f4565b506001600160a01b03808516608052831662000137573062000139565b825b600580546001600160a01b03929092166001600160b81b0319909216919091176102a360a81b17905560005b8251811015620001b1576200019c83828151811062000188576200018862000544565b6020026020010151620001e560201b60201c565b80620001a8816200055a565b91505062000165565b50620001bd81620001c7565b5050505062000582565b600180546001600160a01b0319169055620001e28162000283565b50565b620001ef620002d3565b6001600160a01b038116158015906200021057506200021060038262000331565b604051806040016040528060018152602001603560f81b815250906200024b5760405162461bcd60e51b8152600401620000929190620004f4565b506040516001600160a01b038216907f0e3c58ebfb2e7465fbb1c32e6b4f40c3c4f5ca77e8218a386aff8617831260d790600090a250565b600080546001600160a01b038381166001600160a01b0319831681178455604051919092169283917f8be0079c531659141344cd1fd0a4f28419497f9722a3daafe3b4186f6b6457e09190a35050565b6000546001600160a01b031633146200032f5760405162461bcd60e51b815260206004820181905260248201527f4f776e61626c653a2063616c6c6572206973206e6f7420746865206f776e6572604482015260640162000092565b565b600062000348836001600160a01b03841662000351565b90505b92915050565b60008181526001830160205260408120546200039a575081546001818101845560008481526020808220909301849055845484825282860190935260409020919091556200034b565b5060006200034b565b6001600160a01b0381168114620001e257600080fd5b8051620003c681620003a3565b919050565b634e487b7160e01b600052604160045260246000fd5b60008060008060808587031215620003f857600080fd5b84516200040581620003a3565b809450506020808601516200041a81620003a3565b60408701519094506001600160401b03808211156200043857600080fd5b818801915088601f8301126200044d57600080fd5b815181811115620004625762000462620003cb565b8060051b604051601f19603f830116810181811085821117156200048a576200048a620003cb565b60405291825284820192508381018501918b831115620004a957600080fd5b938501935b82851015620004d257620004c285620003b9565b84529385019392850192620004ae565b809750505050505050620004e960608601620003b9565b905092959194509250565b600060208083528351808285015260005b81811015620005235785810183015185820160400152820162000505565b506000604082860101526040601f19601f8301168501019250505092915050565b634e487b7160e01b600052603260045260246000fd5b6000600182016200057b57634e487b7160e01b600052601160045260246000fd5b5060010190565b60805161200c620005ba600039600081816103910152818161061301528181610aae01528181610c080152611231015261200c6000f3fe608060405234801561001057600080fd5b50600436106101b95760003560e01c80638da5cb5b116100f9578063ce23eb3c11610097578063e7563f3f11610071578063e7563f3f146103ea578063f2fde38b146103fd578063fac09e8714610410578063fbfa77cf1461042357600080fd5b8063ce23eb3c146103b3578063cea9d26f146103c6578063e30c3978146103d957600080fd5b80639be918e6116100d35780639be918e6146102f9578063ad5c40f01461030c578063b714073314610361578063b9a57d021461038c57600080fd5b80638da5cb5b146102b857806393e00c86146102dd578063978bbdb9146102f057600080fd5b80634ba5c66311610166578063715018a611610140578063715018a61461028d57806379ba5097146102955780637b84fda51461029d5780638456cb59146102b057600080fd5b80634ba5c663146102475780635436ae9a1461025a5780635c975abb1461026f57600080fd5b8063352693151161019757806335269315146101f95780633f4ba83a146102285780634682f7131461023057600080fd5b80631c46bc6f146101be5780631e83409a146101d35780631e9a6950146101e6575b600080fd5b6101d16101cc366004611bcf565b610436565b005b6101d16101e1366004611bcf565b6104c2565b6101d16101f4366004611bea565b6106f1565b60055461020f90600160a01b900462ffffff1681565b60405162ffffff90911681526020015b60405180910390f35b6101d16107e0565b61023960075481565b60405190815260200161021f565b6101d1610255366004611c14565b6107f2565b610262610873565b60405161021f9190611c2d565b600154600160a01b900460ff165b604051901515815260200161021f565b6101d1610884565b6101d1610896565b6101d16102ab366004611c14565b610921565b6101d16109c2565b6000546001600160a01b03165b6040516001600160a01b03909116815260200161021f565b6101d16102eb366004611c89565b6109d2565b61023960065481565b61027d610307366004611bcf565b610afe565b61034661031a366004611ce3565b600860209081526000928352604080842090915290825290208054600182015460029092015490919083565b6040805193845260208401929092529082015260600161021f565b61023961036f366004611bea565b600960209081526000928352604080842090915290825290205481565b6102c57f000000000000000000000000000000000000000000000000000000000000000081565b6101d16103c1366004611d16565b610b11565b6101d16103d4366004611d3b565b610bfe565b6001546001600160a01b03166102c5565b6101d16103f8366004611bcf565b610d3d565b6101d161040b366004611bcf565b610dfb565b6101d161041e366004611bcf565b610e79565b6005546102c5906001600160a01b031681565b61043e610f0f565b610449600382610f69565b604051806040016040528060018152602001603560f81b8152509061048a5760405162461bcd60e51b81526004016104819190611d9b565b60405180910390fd5b506040516001600160a01b038216907f37803e2125c48ee96c38ddf04e826daf335b0e1603579040fd275aba6d06b6fc90600090a250565b6104ca610f85565b6104d2610fdc565b6104dd600382611036565b604051806040016040528060018152602001603560f81b815250906105155760405162461bcd60e51b81526004016104819190611d9b565b506001600160a01b038116600090815260086020908152604080832033845290915290206002810154600182015481158015906105525750600081115b60405180604001604052806002815260200161189960f11b8152509061058b5760405162461bcd60e51b81526004016104819190611d9b565b50825460408051808201909152600281527f31330000000000000000000000000000000000000000000000000000000000006020820152904210156105e35760405162461bcd60e51b81526004016104819190611d9b565b506040517f42966c68000000000000000000000000000000000000000000000000000000008152600481018390527f00000000000000000000000000000000000000000000000000000000000000006001600160a01b0316906342966c6890602401600060405180830381600087803b15801561065f57600080fd5b505af1158015610673573d6000803e3d6000fd5b5050600080865560018601819055600286015550506005546106a19085906001600160a01b03163384611058565b6040518181526001600160a01b0385169033907f70eb43c4a8ae8c40502dcf22436c509c28d6ff421cf07c491be56984bd9870689060200160405180910390a35050506106ee6001600255565b50565b6106f9610f85565b610701610fdc565b61070c600383611036565b604051806040016040528060018152602001603360f81b815250906107445760405162461bcd60e51b81526004016104819190611d9b565b506040805180820190915260028152610c4d60f21b6020820152670de0b6b3a76400008210156107875760405162461bcd60e51b81526004016104819190611d9b565b5060075481111560405180604001604052806002815260200161313160f01b815250906107c75760405162461bcd60e51b81526004016104819190611d9b565b506107d2828261109c565b6107dc6001600255565b5050565b6107e8610f0f565b6107f06112b5565b565b6107fa610f0f565b604080518082019091526002815261189960f11b6020820152816108315760405162461bcd60e51b81526004016104819190611d9b565b5060075460408051918252602082018390527f85f74920e1f6204d55f604086d42c74410e5b8f5d3b5c166d2d019dcfa87b8b9910160405180910390a1600755565b606061087f6003611325565b905090565b61088c610f0f565b6107f06000611332565b60015433906001600160a01b031681146109185760405162461bcd60e51b815260206004820152602960248201527f4f776e61626c6532537465703a2063616c6c6572206973206e6f74207468652060448201527f6e6577206f776e657200000000000000000000000000000000000000000000006064820152608401610481565b6106ee81611332565b610929610f0f565b60408051808201909152600181527f36000000000000000000000000000000000000000000000000000000000000006020820152620186a082106109805760405162461bcd60e51b81526004016104819190611d9b565b5060065460408051918252602082018390527f8d10d6dd6545b059182e4bf9534308bf75d7de65cdd8a68c12b7b74f139e58ae910160405180910390a1600655565b6109ca610f0f565b6107f0611358565b6109da610f85565b6109e2610fdc565b6109ed600387611036565b604051806040016040528060018152602001603360f81b81525090610a255760405162461bcd60e51b81526004016104819190611d9b565b506040805180820190915260028152610c4d60f21b6020820152670de0b6b3a7640000861015610a685760405162461bcd60e51b81526004016104819190611d9b565b5060075485111560405180604001604052806002815260200161313160f01b81525090610aa85760405162461bcd60e51b81526004016104819190611d9b565b50610ae27f00000000000000000000000000000000000000000000000000000000000000006001600160a01b0316333088888888886113b6565b610aec868661109c565b610af66001600255565b505050505050565b6000610b0b600383611036565b92915050565b610b19610f0f565b60408051808201909152600281527f313000000000000000000000000000000000000000000000000000000000000060208201526201518062ffffff83161015610b765760405162461bcd60e51b81526004016104819190611d9b565b506005546040805162ffffff600160a01b9093048316815291831660208301527f6f05c070768300be3a8ec47b18efd326d94912ec5cf3f8bd7488e1c66d61e8bf910160405180910390a16005805462ffffff909216600160a01b027fffffffffffffffffff000000ffffffffffffffffffffffffffffffffffffffff909216919091179055565b610c06610f0f565b7f00000000000000000000000000000000000000000000000000000000000000006001600160a01b0316836001600160a01b031614156040518060400160405280600181526020017f390000000000000000000000000000000000000000000000000000000000000081525090610c905760405162461bcd60e51b81526004016104819190611d9b565b506040805180820190915260018152603160f81b60208201526001600160a01b038316610cd05760405162461bcd60e51b81526004016104819190611d9b565b5060408051808201909152600181527f3700000000000000000000000000000000000000000000000000000000000000602082015281610d235760405162461bcd60e51b81526004016104819190611d9b565b50610d386001600160a01b03841683836115c1565b505050565b610d45610f0f565b6040805180820190915260018152603160f81b60208201526001600160a01b038216610d845760405162461bcd60e51b81526004016104819190611d9b565b50600554604080516001600160a01b03928316815291831660208301527f10fec2a14e14feb1d848cdd80d3c7779dbec9893e995469fd2984323d6d71dc8910160405180910390a16005805473ffffffffffffffffffffffffffffffffffffffff19166001600160a01b0392909216919091179055565b610e03610f0f565b600180546001600160a01b03831673ffffffffffffffffffffffffffffffffffffffff199091168117909155610e416000546001600160a01b031690565b6001600160a01b03167f38d16b8cac22d99fc7c124b9cd0de2d3fa1faef420bfe791d8c362d765e2270060405160405180910390a350565b610e81610f0f565b6001600160a01b03811615801590610e9f5750610e9f60038261166a565b604051806040016040528060018152602001603560f81b81525090610ed75760405162461bcd60e51b81526004016104819190611d9b565b506040516001600160a01b038216907f0e3c58ebfb2e7465fbb1c32e6b4f40c3c4f5ca77e8218a386aff8617831260d790600090a250565b6000546001600160a01b031633146107f05760405162461bcd60e51b815260206004820181905260248201527f4f776e61626c653a2063616c6c6572206973206e6f7420746865206f776e65726044820152606401610481565b6000610f7e836001600160a01b03841661167f565b9392505050565b6002805403610fd65760405162461bcd60e51b815260206004820152601f60248201527f5265656e7472616e637947756172643a207265656e7472616e742063616c6c006044820152606401610481565b60028055565b600154600160a01b900460ff16156107f05760405162461bcd60e51b815260206004820152601060248201527f5061757361626c653a20706175736564000000000000000000000000000000006044820152606401610481565b6001600160a01b03811660009081526001830160205260408120541515610f7e565b306001600160a01b038416036110815761107c6001600160a01b03851683836115c1565b611096565b6110966001600160a01b038516848484611772565b50505050565b6000826001600160a01b031663313ce5676040518163ffffffff1660e01b8152600401602060405180830381865afa1580156110dc573d6000803e3d6000fd5b505050506040513d601f19601f820116820180604052508101906111009190611dce565b61110b90600a611ee5565b61111d90670de0b6b3a7640000611ef4565b6111279083611ef4565b9050600080600654111561115457620f4240600654836111479190611f16565b6111519190611ef4565b90505b61115e8183611f2d565b6001600160a01b03851660009081526008602090815260408083203384529091528120600281018054939550909286929061119a908490611f40565b92505081905550828160010160008282546111b59190611f40565b90915550506005546111d390600160a01b900462ffffff1642611f40565b81556001600160a01b038516600090815260096020526040812084916111fc6201518042611ef4565b6112099062015180611f16565b815260200190815260200160002060008282546112269190611f40565b9091555061126190507f00000000000000000000000000000000000000000000000000000000000000006001600160a01b0316333087611772565b604080518481526020810186905280820184905290516001600160a01b0387169133917f215abfcd108b85fbee47f26fda2de66f90f14fa5fcaf0201698ad8ac9323545f9181900360600190a35050505050565b6112bd6117c3565b600180547fffffffffffffffffffffff00ffffffffffffffffffffffffffffffffffffffff1690557f5db9ee0a495bf2e6ff9c91a7834c1ba4fdd244a5e8aa4e537bd38aeae4b073aa335b6040516001600160a01b03909116815260200160405180910390a1565b60606000610f7e8361181c565b6001805473ffffffffffffffffffffffffffffffffffffffff191690556106ee81611878565b611360610fdc565b600180547fffffffffffffffffffffff00ffffffffffffffffffffffffffffffffffffffff16600160a01b1790557f62e78cea01bee320cd4e420270b5ea74000d11b0c9f74754ebdbfc544b05a2586113083390565b604051623f675f60e91b81526001600160a01b038881166004830152600091908a1690637ecebe0090602401602060405180830381865afa1580156113ff573d6000803e3d6000fd5b505050506040513d601f19601f820116820180604052508101906114239190611f53565b6040517fd505accf0000000000000000000000000000000000000000000000000000000081526001600160a01b038a811660048301528981166024830152604482018990526064820188905260ff8716608483015260a4820186905260c48201859052919250908a169063d505accf9060e401600060405180830381600087803b1580156114b057600080fd5b505af11580156114c4573d6000803e3d6000fd5b5050604051623f675f60e91b81526001600160a01b038b81166004830152600093508c169150637ecebe0090602401602060405180830381865afa158015611510573d6000803e3d6000fd5b505050506040513d601f19601f820116820180604052508101906115349190611f53565b9050611541826001611f40565b81146115b55760405162461bcd60e51b815260206004820152602160248201527f5361666545524332303a207065726d697420646964206e6f742073756363656560448201527f64000000000000000000000000000000000000000000000000000000000000006064820152608401610481565b50505050505050505050565b6040516001600160a01b038316602482015260448101829052610d389084907fa9059cbb00000000000000000000000000000000000000000000000000000000906064015b60408051601f198184030181529190526020810180517bffffffffffffffffffffffffffffffffffffffffffffffffffffffff167fffffffff00000000000000000000000000000000000000000000000000000000909316929092179091526118d5565b6000610f7e836001600160a01b0384166119bd565b600081815260018301602052604081205480156117685760006116a3600183611f2d565b85549091506000906116b790600190611f2d565b905081811461171c5760008660000182815481106116d7576116d7611f6c565b90600052602060002001549050808760000184815481106116fa576116fa611f6c565b6000918252602080832090910192909255918252600188019052604090208390555b855486908061172d5761172d611f82565b600190038181906000526020600020016000905590558560010160008681526020019081526020016000206000905560019350505050610b0b565b6000915050610b0b565b6040516001600160a01b03808516602483015283166044820152606481018290526110969085907f23b872dd0000000000000000000000000000000000000000000000000000000090608401611606565b600154600160a01b900460ff166107f05760405162461bcd60e51b815260206004820152601460248201527f5061757361626c653a206e6f74207061757365640000000000000000000000006044820152606401610481565b60608160000180548060200260200160405190810160405280929190818152602001828054801561186c57602002820191906000526020600020905b815481526020019060010190808311611858575b50505050509050919050565b600080546001600160a01b0383811673ffffffffffffffffffffffffffffffffffffffff19831681178455604051919092169283917f8be0079c531659141344cd1fd0a4f28419497f9722a3daafe3b4186f6b6457e09190a35050565b600061192a826040518060400160405280602081526020017f5361666545524332303a206c6f772d6c6576656c2063616c6c206661696c6564815250856001600160a01b0316611a0c9092919063ffffffff16565b905080516000148061194b57508080602001905181019061194b9190611f98565b610d385760405162461bcd60e51b815260206004820152602a60248201527f5361666545524332303a204552433230206f7065726174696f6e20646964206e60448201527f6f742073756363656564000000000000000000000000000000000000000000006064820152608401610481565b6000818152600183016020526040812054611a0457508154600181810184556000848152602080822090930184905584548482528286019093526040902091909155610b0b565b506000610b0b565b6060611a1b8484600085611a23565b949350505050565b606082471015611a9b5760405162461bcd60e51b815260206004820152602660248201527f416464726573733a20696e73756666696369656e742062616c616e636520666f60448201527f722063616c6c00000000000000000000000000000000000000000000000000006064820152608401610481565b600080866001600160a01b03168587604051611ab79190611fba565b60006040518083038185875af1925050503d8060008114611af4576040519150601f19603f3d011682016040523d82523d6000602084013e611af9565b606091505b5091509150611b0a87838387611b15565b979650505050505050565b60608315611b84578251600003611b7d576001600160a01b0385163b611b7d5760405162461bcd60e51b815260206004820152601d60248201527f416464726573733a2063616c6c20746f206e6f6e2d636f6e74726163740000006044820152606401610481565b5081611a1b565b611a1b8383815115611b995781518083602001fd5b8060405162461bcd60e51b81526004016104819190611d9b565b80356001600160a01b0381168114611bca57600080fd5b919050565b600060208284031215611be157600080fd5b610f7e82611bb3565b60008060408385031215611bfd57600080fd5b611c0683611bb3565b946020939093013593505050565b600060208284031215611c2657600080fd5b5035919050565b6020808252825182820181905260009190848201906040850190845b81811015611c6e5783516001600160a01b031683529284019291840191600101611c49565b50909695505050505050565b60ff811681146106ee57600080fd5b60008060008060008060c08789031215611ca257600080fd5b611cab87611bb3565b955060208701359450604087013593506060870135611cc981611c7a565b9598949750929560808101359460a0909101359350915050565b60008060408385031215611cf657600080fd5b611cff83611bb3565b9150611d0d60208401611bb3565b90509250929050565b600060208284031215611d2857600080fd5b813562ffffff81168114610f7e57600080fd5b600080600060608486031215611d5057600080fd5b611d5984611bb3565b9250611d6760208501611bb3565b9150604084013590509250925092565b60005b83811015611d92578181015183820152602001611d7a565b50506000910152565b6020815260008251806020840152611dba816040850160208701611d77565b601f01601f19169190910160400192915050565b600060208284031215611de057600080fd5b8151610f7e81611c7a565b634e487b7160e01b600052601160045260246000fd5b600181815b80851115611e3c578160001904821115611e2257611e22611deb565b80851615611e2f57918102915b93841c9390800290611e06565b509250929050565b600082611e5357506001610b0b565b81611e6057506000610b0b565b8160018114611e765760028114611e8057611e9c565b6001915050610b0b565b60ff841115611e9157611e91611deb565b50506001821b610b0b565b5060208310610133831016604e8410600b8410161715611ebf575081810a610b0b565b611ec98383611e01565b8060001904821115611edd57611edd611deb565b029392505050565b6000610f7e60ff841683611e44565b600082611f1157634e487b7160e01b600052601260045260246000fd5b500490565b8082028115828204841417610b0b57610b0b611deb565b81810381811115610b0b57610b0b611deb565b80820180821115610b0b57610b0b611deb565b600060208284031215611f6557600080fd5b5051919050565b634e487b7160e01b600052603260045260246000fd5b634e487b7160e01b600052603160045260246000fd5b600060208284031215611faa57600080fd5b81518015158114610f7e57600080fd5b60008251611fcc818460208701611d77565b919091019291505056fea264697066735822122055f1082d854034b583c6df88397bc375da261e22a47433f8a6b8fd27332b839264736f6c63430008140033",
  "devdoc": {
    "events": {
      "Paused(address)": {
        "details": "Emitted when the pause is triggered by `account`."
      },
      "Unpaused(address)": {
        "details": "Emitted when the pause is lifted by `account`."
      }
    },
    "kind": "dev",
    "methods": {
      "acceptOwnership()": {
        "details": "The new owner accepts the ownership transfer."
      },
      "addSupportedAsset(address)": {
        "params": {
          "asset": "Support asset"
        }
      },
      "claim(address)": {
        "params": {
          "_assetToken": "Claimable token address"
        }
      },
      "isSupportedAsset(address)": {
        "params": {
          "asset": "Support asset"
        }
      },
      "owner()": {
        "details": "Returns the address of the current owner."
      },
      "pause()": {
        "details": "Pauses contract functionality."
      },
      "paused()": {
        "details": "Returns true if the contract is paused, and false otherwise."
      },
      "pendingOwner()": {
        "details": "Returns the address of the pending owner."
      },
      "redeem(address,uint256)": {
        "params": {
          "_assetToken": "Redeem asset address",
          "_pusdAmount": "PUSD amount"
        }
      },
      "redeemWithPermit(address,uint256,uint256,uint8,bytes32,bytes32)": {
        "params": {
          "_assetToken": "Redeem asset address",
          "_deadline": "Deadline",
          "_permitR": "R",
          "_permitS": "S",
          "_permitV": "V",
          "_pusdAmount": "PUSD amount"
        }
      },
      "removeSupportedAsset(address)": {
        "params": {
          "asset": "Support asset"
        }
      },
      "renounceOwnership()": {
        "details": "Leaves the contract without owner. It will not be possible to call `onlyOwner` functions. Can only be called by the current owner. NOTE: Renouncing ownership will leave the contract without an owner, thereby disabling any functionality that is only available to the owner."
      },
      "setCooldownDuration(uint24)": {
        "params": {
          "duration": "Duration of the cooldown"
        }
      },
      "transferOwnership(address)": {
        "details": "Starts the ownership transfer of the contract to a new account. Replaces the pending transfer if there is one. Can only be called by the current owner."
      },
      "unpause()": {
        "details": "Unpauses contract functionality."
      },
      "updateFeeRate(uint256)": {
        "details": "Update the redeem fee rate.Only callable by addresses with the owner.",
        "params": {
          "_rate": "The new redeem fee rate."
        }
      },
      "updateMaxPerRedeem(uint256)": {
        "details": "Update the max redeem limit.Only callable by addresses with the owner.",
        "params": {
          "_maxRedeem": "The new max redeem limit."
        }
      },
      "updateVault(address)": {
        "details": "Update the vault address.Only callable by addresses with the owner.",
        "params": {
          "_vault": "The new vault address."
        }
      }
    },
    "title": "PUSD Redeem",
    "version": 1
  },
  "userdoc": {
    "kind": "user",
    "methods": {
      "PUSD()": {
        "notice": "PUSD stablecoin"
      },
      "addSupportedAsset(address)": {
        "notice": "Adds an asset to the supported assets list."
      },
      "claim(address)": {
        "notice": "Cliam token"
      },
      "cooldownDuration()": {
        "notice": "T+2"
      },
      "isSupportedAsset(address)": {
        "notice": "Checks if an asset is supported."
      },
      "pause()": {
        "notice": "Only callable by addresses with the owner."
      },
      "redeem(address,uint256)": {
        "notice": "Redeem supported token"
      },
      "redeemWithPermit(address,uint256,uint256,uint8,bytes32,bytes32)": {
        "notice": "Redeem supported token"
      },
      "redemptionHistory(address,uint256)": {
        "notice": "assetToken => timestamp(days) => totalRedeem"
      },
      "redemptions(address,address)": {
        "notice": "assetToken => account => Redemption"
      },
      "removeSupportedAsset(address)": {
        "notice": "Removes an asset from the supported assets list"
      },
      "setCooldownDuration(uint24)": {
        "notice": "Set cooldown duration."
      },
      "unpause()": {
        "notice": "Only callable by addresses with the owner."
      }
    },
    "version": 1
  },
  "storageLayout": {
    "storage": [
      {
        "astId": 396,
        "contract": "contracts/tokens/PUSDRedeem.sol:PUSDRedeem",
        "label": "_owner",
        "offset": 0,
        "slot": "0",
        "type": "t_address"
      },
      {
        "astId": 509,
        "contract": "contracts/tokens/PUSDRedeem.sol:PUSDRedeem",
        "label": "_pendingOwner",
        "offset": 0,
        "slot": "1",
        "type": "t_address"
      },
      {
        "astId": 627,
        "contract": "contracts/tokens/PUSDRedeem.sol:PUSDRedeem",
        "label": "_paused",
        "offset": 20,
        "slot": "1",
        "type": "t_bool"
      },
      {
        "astId": 728,
        "contract": "contracts/tokens/PUSDRedeem.sol:PUSDRedeem",
        "label": "_status",
        "offset": 0,
        "slot": "2",
        "type": "t_uint256"
      },
      {
        "astId": 5720,
        "contract": "contracts/tokens/PUSDRedeem.sol:PUSDRedeem",
        "label": "_supportedAssets",
        "offset": 0,
        "slot": "3",
        "type": "t_struct(AddressSet)4995_storage"
      },
      {
        "astId": 5722,
        "contract": "contracts/tokens/PUSDRedeem.sol:PUSDRedeem",
        "label": "vault",
        "offset": 0,
        "slot": "5",
        "type": "t_address"
      },
      {
        "astId": 5725,
        "contract": "contracts/tokens/PUSDRedeem.sol:PUSDRedeem",
        "label": "cooldownDuration",
        "offset": 20,
        "slot": "5",
        "type": "t_uint24"
      },
      {
        "astId": 5727,
        "contract": "contracts/tokens/PUSDRedeem.sol:PUSDRedeem",
        "label": "feeRate",
        "offset": 0,
        "slot": "6",
        "type": "t_uint256"
      },
      {
        "astId": 5729,
        "contract": "contracts/tokens/PUSDRedeem.sol:PUSDRedeem",
        "label": "maxPerRedeem",
        "offset": 0,
        "slot": "7",
        "type": "t_uint256"
      },
      {
        "astId": 5749,
        "contract": "contracts/tokens/PUSDRedeem.sol:PUSDRedeem",
        "label": "redemptions",
        "offset": 0,
        "slot": "8",
        "type": "t_mapping(t_address,t_mapping(t_address,t_struct(Redemption)5425_storage))"
      },
      {
        "astId": 5756,
        "contract": "contracts/tokens/PUSDRedeem.sol:PUSDRedeem",
        "label": "redemptionHistory",
        "offset": 0,
        "slot": "9",
        "type": "t_mapping(t_address,t_mapping(t_uint256,t_uint256))"
      }
    ],
    "types": {
      "t_address": {
        "encoding": "inplace",
        "label": "address",
        "numberOfBytes": "20"
      },
      "t_array(t_bytes32)dyn_storage": {
        "base": "t_bytes32",
        "encoding": "dynamic_array",
        "label": "bytes32[]",
        "numberOfBytes": "32"
      },
      "t_bool": {
        "encoding": "inplace",
        "label": "bool",
        "numberOfBytes": "1"
      },
      "t_bytes32": {
        "encoding": "inplace",
        "label": "bytes32",
        "numberOfBytes": "32"
      },
      "t_mapping(t_address,t_mapping(t_address,t_struct(Redemption)5425_storage))": {
        "encoding": "mapping",
        "key": "t_address",
        "label": "mapping(address => mapping(address => struct IPUSDRedeem.Redemption))",
        "numberOfBytes": "32",
        "value": "t_mapping(t_address,t_struct(Redemption)5425_storage)"
      },
      "t_mapping(t_address,t_mapping(t_uint256,t_uint256))": {
        "encoding": "mapping",
        "key": "t_address",
        "label": "mapping(address => mapping(uint256 => uint256))",
        "numberOfBytes": "32",
        "value": "t_mapping(t_uint256,t_uint256)"
      },
      "t_mapping(t_address,t_struct(Redemption)5425_storage)": {
        "encoding": "mapping",
        "key": "t_address",
        "label": "mapping(address => struct IPUSDRedeem.Redemption)",
        "numberOfBytes": "32",
        "value": "t_struct(Redemption)5425_storage"
      },
      "t_mapping(t_bytes32,t_uint256)": {
        "encoding": "mapping",
        "key": "t_bytes32",
        "label": "mapping(bytes32 => uint256)",
        "numberOfBytes": "32",
        "value": "t_uint256"
      },
      "t_mapping(t_uint256,t_uint256)": {
        "encoding": "mapping",
        "key": "t_uint256",
        "label": "mapping(uint256 => uint256)",
        "numberOfBytes": "32",
        "value": "t_uint256"
      },
      "t_struct(AddressSet)4995_storage": {
        "encoding": "inplace",
        "label": "struct EnumerableSet.AddressSet",
        "members": [
          {
            "astId": 4994,
            "contract": "contracts/tokens/PUSDRedeem.sol:PUSDRedeem",
            "label": "_inner",
            "offset": 0,
            "slot": "0",
            "type": "t_struct(Set)4680_storage"
          }
        ],
        "numberOfBytes": "64"
      },
      "t_struct(Redemption)5425_storage": {
        "encoding": "inplace",
        "label": "struct IPUSDRedeem.Redemption",
        "members": [
          {
            "astId": 5420,
            "contract": "contracts/tokens/PUSDRedeem.sol:PUSDRedeem",
            "label": "cooldownEnd",
            "offset": 0,
            "slot": "0",
            "type": "t_uint256"
          },
          {
            "astId": 5422,
            "contract": "contracts/tokens/PUSDRedeem.sol:PUSDRedeem",
            "label": "underlingAmount",
            "offset": 0,
            "slot": "1",
            "type": "t_uint256"
          },
          {
            "astId": 5424,
            "contract": "contracts/tokens/PUSDRedeem.sol:PUSDRedeem",
            "label": "pusdAmount",
            "offset": 0,
            "slot": "2",
            "type": "t_uint256"
          }
        ],
        "numberOfBytes": "96"
      },
      "t_struct(Set)4680_storage": {
        "encoding": "inplace",
        "label": "struct EnumerableSet.Set",
        "members": [
          {
            "astId": 4675,
            "contract": "contracts/tokens/PUSDRedeem.sol:PUSDRedeem",
            "label": "_values",
            "offset": 0,
            "slot": "0",
            "type": "t_array(t_bytes32)dyn_storage"
          },
          {
            "astId": 4679,
            "contract": "contracts/tokens/PUSDRedeem.sol:PUSDRedeem",
            "label": "_indexes",
            "offset": 0,
            "slot": "1",
            "type": "t_mapping(t_bytes32,t_uint256)"
          }
        ],
        "numberOfBytes": "64"
      },
      "t_uint24": {
        "encoding": "inplace",
        "label": "uint24",
        "numberOfBytes": "3"
      },
      "t_uint256": {
        "encoding": "inplace",
        "label": "uint256",
        "numberOfBytes": "32"
      }
    }
  }
}