{
  "address": "0xd7E240bDE89EaE9166a126a7Fb7A68EBE64f8A27",
  "abi": [
    {
      "inputs": [],
      "name": "foo",
      "outputs": [
        {
          "internalType": "uint256",
          "name": "",
          "type": "uint256"
        }
      ],
      "stateMutability": "pure",
      "type": "function"
    }
  ],
  "transactionHash": "0xa60ef2bc796ab72b884b113e6b6f7d11963dfd6a4137b91aa03c7d322d596444",
  "args": [],
  "numDeployments": 1,
  "solcInputHash": "bd3e71f7f2ffef55623a9872bdc9acb5",
  "bytecode": "0x6080604052348015600f57600080fd5b50607780601d6000396000f3fe6080604052348015600f57600080fd5b506004361060285760003560e01c8063c298557814602d575b600080fd5b600060405190815260200160405180910390f3fea264697066735822122003fed22d4cc5f0086a012c3e72543ec46220f2876c1436df84c7ecb5071def6164736f6c63430008140033",
  "devdoc": {
    "kind": "dev",
    "methods": {},
    "version": 1
  },
  "userdoc": {
    "kind": "user",
    "methods": {},
    "version": 1
  },
  "storageLayout": {
    "storage": [],
    "types": null
  }
}