{
  "address": "0x2F3560fD19D2693Cb340C07f4f8aF6B036210816",
  "abi": [
    {
      "inputs": [
        {
          "internalType": "contract IStakedBBTC",
          "name": "_stBBTC",
          "type": "address"
        },
        {
          "internalType": "contract IStrategyManagerV2",
          "name": "_strategyManager",
          "type": "address"
        },
        {
          "internalType": "contract IDelegationManager",
          "name": "_delegationManager",
          "type": "address"
        }
      ],
      "stateMutability": "nonpayable",
      "type": "constructor"
    },
    {
      "inputs": [],
      "name": "ProvidedRewardTooHigh",
      "type": "error"
    },
    {
      "anonymous": false,
      "inputs": [
        {
          "indexed": true,
          "internalType": "address",
          "name": "owner",
          "type": "address"
        },
        {
          "indexed": true,
          "internalType": "address",
          "name": "spender",
          "type": "address"
        },
        {
          "indexed": false,
          "internalType": "uint256",
          "name": "value",
          "type": "uint256"
        }
      ],
      "name": "Approval",
      "type": "event"
    },
    {
      "anonymous": false,
      "inputs": [
        {
          "indexed": false,
          "internalType": "uint8",
          "name": "version",
          "type": "uint8"
        }
      ],
      "name": "Initialized",
      "type": "event"
    },
    {
      "anonymous": false,
      "inputs": [
        {
          "indexed": true,
          "internalType": "address",
          "name": "previousOwner",
          "type": "address"
        },
        {
          "indexed": true,
          "internalType": "address",
          "name": "newOwner",
          "type": "address"
        }
      ],
      "name": "OwnershipTransferred",
      "type": "event"
    },
    {
      "anonymous": false,
      "inputs": [
        {
          "indexed": false,
          "internalType": "uint256",
          "name": "reward",
          "type": "uint256"
        }
      ],
      "name": "RewardAdded",
      "type": "event"
    },
    {
      "anonymous": false,
      "inputs": [
        {
          "indexed": true,
          "internalType": "address",
          "name": "user",
          "type": "address"
        },
        {
          "indexed": false,
          "internalType": "uint256",
          "name": "reward",
          "type": "uint256"
        }
      ],
      "name": "RewardPaid",
      "type": "event"
    },
    {
      "anonymous": false,
      "inputs": [
        {
          "indexed": true,
          "internalType": "bytes32",
          "name": "role",
          "type": "bytes32"
        },
        {
          "indexed": true,
          "internalType": "bytes32",
          "name": "previousAdminRole",
          "type": "bytes32"
        },
        {
          "indexed": true,
          "internalType": "bytes32",
          "name": "newAdminRole",
          "type": "bytes32"
        }
      ],
      "name": "RoleAdminChanged",
      "type": "event"
    },
    {
      "anonymous": false,
      "inputs": [
        {
          "indexed": true,
          "internalType": "bytes32",
          "name": "role",
          "type": "bytes32"
        },
        {
          "indexed": true,
          "internalType": "address",
          "name": "account",
          "type": "address"
        },
        {
          "indexed": true,
          "internalType": "address",
          "name": "sender",
          "type": "address"
        }
      ],
      "name": "RoleGranted",
      "type": "event"
    },
    {
      "anonymous": false,
      "inputs": [
        {
          "indexed": true,
          "internalType": "bytes32",
          "name": "role",
          "type": "bytes32"
        },
        {
          "indexed": true,
          "internalType": "address",
          "name": "account",
          "type": "address"
        },
        {
          "indexed": true,
          "internalType": "address",
          "name": "sender",
          "type": "address"
        }
      ],
      "name": "RoleRevoked",
      "type": "event"
    },
    {
      "anonymous": false,
      "inputs": [
        {
          "indexed": false,
          "internalType": "contract IStrategy",
          "name": "previousStrategy",
          "type": "address"
        },
        {
          "indexed": false,
          "internalType": "contract IStrategy",
          "name": "newStrategy",
          "type": "address"
        }
      ],
      "name": "SetStrategy",
      "type": "event"
    },
    {
      "anonymous": false,
      "inputs": [
        {
          "indexed": true,
          "internalType": "address",
          "name": "from",
          "type": "address"
        },
        {
          "indexed": true,
          "internalType": "address",
          "name": "to",
          "type": "address"
        },
        {
          "indexed": false,
          "internalType": "uint256",
          "name": "value",
          "type": "uint256"
        }
      ],
      "name": "Transfer",
      "type": "event"
    },
    {
      "anonymous": false,
      "inputs": [
        {
          "indexed": false,
          "internalType": "address",
          "name": "previousPool",
          "type": "address"
        },
        {
          "indexed": false,
          "internalType": "address",
          "name": "currentPool",
          "type": "address"
        }
      ],
      "name": "UpdateLenBPool",
      "type": "event"
    },
    {
      "anonymous": false,
      "inputs": [
        {
          "indexed": false,
          "internalType": "address",
          "name": "previousOperator",
          "type": "address"
        },
        {
          "indexed": false,
          "internalType": "address",
          "name": "newOperator",
          "type": "address"
        }
      ],
      "name": "UpdateOperator",
      "type": "event"
    },
    {
      "anonymous": false,
      "inputs": [
        {
          "indexed": false,
          "internalType": "uint256",
          "name": "previousDuration",
          "type": "uint256"
        },
        {
          "indexed": false,
          "internalType": "uint256",
          "name": "newDuration",
          "type": "uint256"
        }
      ],
      "name": "UpdateRewardsDuration",
      "type": "event"
    },
    {
      "stateMutability": "payable",
      "type": "fallback"
    },
    {
      "inputs": [],
      "name": "DEFAULT_ADMIN_ROLE",
      "outputs": [
        {
          "internalType": "bytes32",
          "name": "",
          "type": "bytes32"
        }
      ],
      "stateMutability": "view",
      "type": "function"
    },
    {
      "inputs": [],
      "name": "OPERATOR_ROLE",
      "outputs": [
        {
          "internalType": "bytes32",
          "name": "",
          "type": "bytes32"
        }
      ],
      "stateMutability": "view",
      "type": "function"
    },
    {
      "inputs": [
        {
          "internalType": "address",
          "name": "_operator",
          "type": "address"
        }
      ],
      "name": "addOperator",
      "outputs": [],
      "stateMutability": "nonpayable",
      "type": "function"
    },
    {
      "inputs": [
        {
          "internalType": "address",
          "name": "owner",
          "type": "address"
        },
        {
          "internalType": "address",
          "name": "spender",
          "type": "address"
        }
      ],
      "name": "allowance",
      "outputs": [
        {
          "internalType": "uint256",
          "name": "",
          "type": "uint256"
        }
      ],
      "stateMutability": "view",
      "type": "function"
    },
    {
      "inputs": [
        {
          "internalType": "address",
          "name": "spender",
          "type": "address"
        },
        {
          "internalType": "uint256",
          "name": "amount",
          "type": "uint256"
        }
      ],
      "name": "approve",
      "outputs": [
        {
          "internalType": "bool",
          "name": "",
          "type": "bool"
        }
      ],
      "stateMutability": "nonpayable",
      "type": "function"
    },
    {
      "inputs": [
        {
          "internalType": "address",
          "name": "account",
          "type": "address"
        }
      ],
      "name": "balanceOf",
      "outputs": [
        {
          "internalType": "uint256",
          "name": "",
          "type": "uint256"
        }
      ],
      "stateMutability": "view",
      "type": "function"
    },
    {
      "inputs": [],
      "name": "decimals",
      "outputs": [
        {
          "internalType": "uint8",
          "name": "",
          "type": "uint8"
        }
      ],
      "stateMutability": "view",
      "type": "function"
    },
    {
      "inputs": [
        {
          "internalType": "address",
          "name": "spender",
          "type": "address"
        },
        {
          "internalType": "uint256",
          "name": "subtractedValue",
          "type": "uint256"
        }
      ],
      "name": "decreaseAllowance",
      "outputs": [
        {
          "internalType": "bool",
          "name": "",
          "type": "bool"
        }
      ],
      "stateMutability": "nonpayable",
      "type": "function"
    },
    {
      "inputs": [
        {
          "internalType": "uint256",
          "name": "amount",
          "type": "uint256"
        }
      ],
      "name": "depositStakedBBTC",
      "outputs": [],
      "stateMutability": "nonpayable",
      "type": "function"
    },
    {
      "inputs": [
        {
          "internalType": "uint256",
          "name": "amount",
          "type": "uint256"
        },
        {
          "internalType": "address",
          "name": "onBehalfOf",
          "type": "address"
        },
        {
          "internalType": "uint16",
          "name": "referralCode",
          "type": "uint16"
        }
      ],
      "name": "depositStakedBBTCToLenB",
      "outputs": [],
      "stateMutability": "nonpayable",
      "type": "function"
    },
    {
      "inputs": [
        {
          "internalType": "address",
          "name": "account",
          "type": "address"
        }
      ],
      "name": "earned",
      "outputs": [
        {
          "internalType": "uint256",
          "name": "",
          "type": "uint256"
        }
      ],
      "stateMutability": "view",
      "type": "function"
    },
    {
      "inputs": [
        {
          "internalType": "address",
          "name": "token",
          "type": "address"
        },
        {
          "internalType": "address",
          "name": "to",
          "type": "address"
        },
        {
          "internalType": "uint256",
          "name": "amount",
          "type": "uint256"
        }
      ],
      "name": "emergencyTokenTransfer",
      "outputs": [],
      "stateMutability": "nonpayable",
      "type": "function"
    },
    {
      "inputs": [],
      "name": "getReward",
      "outputs": [],
      "stateMutability": "nonpayable",
      "type": "function"
    },
    {
      "inputs": [],
      "name": "getRewardForDuration",
      "outputs": [
        {
          "internalType": "uint256",
          "name": "",
          "type": "uint256"
        }
      ],
      "stateMutability": "view",
      "type": "function"
    },
    {
      "inputs": [
        {
          "internalType": "bytes32",
          "name": "role",
          "type": "bytes32"
        }
      ],
      "name": "getRoleAdmin",
      "outputs": [
        {
          "internalType": "bytes32",
          "name": "",
          "type": "bytes32"
        }
      ],
      "stateMutability": "view",
      "type": "function"
    },
    {
      "inputs": [],
      "name": "getStakedBBTCAddress",
      "outputs": [
        {
          "internalType": "address",
          "name": "",
          "type": "address"
        }
      ],
      "stateMutability": "view",
      "type": "function"
    },
    {
      "inputs": [],
      "name": "getStrategyAddress",
      "outputs": [
        {
          "internalType": "address",
          "name": "",
          "type": "address"
        }
      ],
      "stateMutability": "view",
      "type": "function"
    },
    {
      "inputs": [
        {
          "internalType": "bytes32",
          "name": "role",
          "type": "bytes32"
        },
        {
          "internalType": "address",
          "name": "account",
          "type": "address"
        }
      ],
      "name": "grantRole",
      "outputs": [],
      "stateMutability": "nonpayable",
      "type": "function"
    },
    {
      "inputs": [
        {
          "internalType": "bytes32",
          "name": "role",
          "type": "bytes32"
        },
        {
          "internalType": "address",
          "name": "account",
          "type": "address"
        }
      ],
      "name": "hasRole",
      "outputs": [
        {
          "internalType": "bool",
          "name": "",
          "type": "bool"
        }
      ],
      "stateMutability": "view",
      "type": "function"
    },
    {
      "inputs": [
        {
          "internalType": "address",
          "name": "spender",
          "type": "address"
        },
        {
          "internalType": "uint256",
          "name": "addedValue",
          "type": "uint256"
        }
      ],
      "name": "increaseAllowance",
      "outputs": [
        {
          "internalType": "bool",
          "name": "",
          "type": "bool"
        }
      ],
      "stateMutability": "nonpayable",
      "type": "function"
    },
    {
      "inputs": [
        {
          "internalType": "address",
          "name": "_owner",
          "type": "address"
        },
        {
          "internalType": "uint256",
          "name": "_rewardsDuration",
          "type": "uint256"
        }
      ],
      "name": "initialize",
      "outputs": [],
      "stateMutability": "nonpayable",
      "type": "function"
    },
    {
      "inputs": [
        {
          "internalType": "address",
          "name": "_operator",
          "type": "address"
        }
      ],
      "name": "isOperator",
      "outputs": [
        {
          "internalType": "bool",
          "name": "",
          "type": "bool"
        }
      ],
      "stateMutability": "view",
      "type": "function"
    },
    {
      "inputs": [],
      "name": "lastTimeRewardApplicable",
      "outputs": [
        {
          "internalType": "uint256",
          "name": "",
          "type": "uint256"
        }
      ],
      "stateMutability": "view",
      "type": "function"
    },
    {
      "inputs": [],
      "name": "lastUpdateTime",
      "outputs": [
        {
          "internalType": "uint256",
          "name": "",
          "type": "uint256"
        }
      ],
      "stateMutability": "view",
      "type": "function"
    },
    {
      "inputs": [],
      "name": "name",
      "outputs": [
        {
          "internalType": "string",
          "name": "",
          "type": "string"
        }
      ],
      "stateMutability": "view",
      "type": "function"
    },
    {
      "inputs": [],
      "name": "notifyRewardAmount",
      "outputs": [],
      "stateMutability": "payable",
      "type": "function"
    },
    {
      "inputs": [],
      "name": "owner",
      "outputs": [
        {
          "internalType": "address",
          "name": "",
          "type": "address"
        }
      ],
      "stateMutability": "view",
      "type": "function"
    },
    {
      "inputs": [],
      "name": "periodFinish",
      "outputs": [
        {
          "internalType": "uint256",
          "name": "",
          "type": "uint256"
        }
      ],
      "stateMutability": "view",
      "type": "function"
    },
    {
      "inputs": [
        {
          "internalType": "address",
          "name": "_operator",
          "type": "address"
        }
      ],
      "name": "removeOperator",
      "outputs": [],
      "stateMutability": "nonpayable",
      "type": "function"
    },
    {
      "inputs": [],
      "name": "renounceOwnership",
      "outputs": [],
      "stateMutability": "nonpayable",
      "type": "function"
    },
    {
      "inputs": [
        {
          "internalType": "bytes32",
          "name": "role",
          "type": "bytes32"
        },
        {
          "internalType": "address",
          "name": "account",
          "type": "address"
        }
      ],
      "name": "renounceRole",
      "outputs": [],
      "stateMutability": "nonpayable",
      "type": "function"
    },
    {
      "inputs": [
        {
          "internalType": "bytes32",
          "name": "role",
          "type": "bytes32"
        },
        {
          "internalType": "address",
          "name": "account",
          "type": "address"
        }
      ],
      "name": "revokeRole",
      "outputs": [],
      "stateMutability": "nonpayable",
      "type": "function"
    },
    {
      "inputs": [],
      "name": "rewardPerToken",
      "outputs": [
        {
          "internalType": "uint256",
          "name": "",
          "type": "uint256"
        }
      ],
      "stateMutability": "view",
      "type": "function"
    },
    {
      "inputs": [],
      "name": "rewardPerTokenStored",
      "outputs": [
        {
          "internalType": "uint256",
          "name": "",
          "type": "uint256"
        }
      ],
      "stateMutability": "view",
      "type": "function"
    },
    {
      "inputs": [],
      "name": "rewardRate",
      "outputs": [
        {
          "internalType": "uint256",
          "name": "",
          "type": "uint256"
        }
      ],
      "stateMutability": "view",
      "type": "function"
    },
    {
      "inputs": [
        {
          "internalType": "address",
          "name": "",
          "type": "address"
        }
      ],
      "name": "rewards",
      "outputs": [
        {
          "internalType": "uint256",
          "name": "",
          "type": "uint256"
        }
      ],
      "stateMutability": "view",
      "type": "function"
    },
    {
      "inputs": [],
      "name": "rewardsDuration",
      "outputs": [
        {
          "internalType": "uint256",
          "name": "",
          "type": "uint256"
        }
      ],
      "stateMutability": "view",
      "type": "function"
    },
    {
      "inputs": [
        {
          "internalType": "contract IStrategy",
          "name": "_strategy",
          "type": "address"
        }
      ],
      "name": "setStrategy",
      "outputs": [],
      "stateMutability": "nonpayable",
      "type": "function"
    },
    {
      "inputs": [
        {
          "internalType": "bytes4",
          "name": "interfaceId",
          "type": "bytes4"
        }
      ],
      "name": "supportsInterface",
      "outputs": [
        {
          "internalType": "bool",
          "name": "",
          "type": "bool"
        }
      ],
      "stateMutability": "view",
      "type": "function"
    },
    {
      "inputs": [],
      "name": "symbol",
      "outputs": [
        {
          "internalType": "string",
          "name": "",
          "type": "string"
        }
      ],
      "stateMutability": "view",
      "type": "function"
    },
    {
      "inputs": [],
      "name": "totalSupply",
      "outputs": [
        {
          "internalType": "uint256",
          "name": "",
          "type": "uint256"
        }
      ],
      "stateMutability": "view",
      "type": "function"
    },
    {
      "inputs": [
        {
          "internalType": "address",
          "name": "to",
          "type": "address"
        },
        {
          "internalType": "uint256",
          "name": "amount",
          "type": "uint256"
        }
      ],
      "name": "transfer",
      "outputs": [
        {
          "internalType": "bool",
          "name": "",
          "type": "bool"
        }
      ],
      "stateMutability": "nonpayable",
      "type": "function"
    },
    {
      "inputs": [
        {
          "internalType": "address",
          "name": "from",
          "type": "address"
        },
        {
          "internalType": "address",
          "name": "to",
          "type": "address"
        },
        {
          "internalType": "uint256",
          "name": "amount",
          "type": "uint256"
        }
      ],
      "name": "transferFrom",
      "outputs": [
        {
          "internalType": "bool",
          "name": "",
          "type": "bool"
        }
      ],
      "stateMutability": "nonpayable",
      "type": "function"
    },
    {
      "inputs": [
        {
          "internalType": "address",
          "name": "newOwner",
          "type": "address"
        }
      ],
      "name": "transferOwnership",
      "outputs": [],
      "stateMutability": "nonpayable",
      "type": "function"
    },
    {
      "inputs": [
        {
          "internalType": "contract IPool",
          "name": "_newPool",
          "type": "address"
        }
      ],
      "name": "updateLenBPool",
      "outputs": [],
      "stateMutability": "nonpayable",
      "type": "function"
    },
    {
      "inputs": [
        {
          "internalType": "uint256",
          "name": "_duration",
          "type": "uint256"
        }
      ],
      "name": "updateRewardsDuration",
      "outputs": [],
      "stateMutability": "nonpayable",
      "type": "function"
    },
    {
      "inputs": [
        {
          "internalType": "address",
          "name": "",
          "type": "address"
        }
      ],
      "name": "userRewardPerTokenPaid",
      "outputs": [
        {
          "internalType": "uint256",
          "name": "",
          "type": "uint256"
        }
      ],
      "stateMutability": "view",
      "type": "function"
    },
    {
      "inputs": [
        {
          "components": [
            {
              "internalType": "address",
              "name": "staker",
              "type": "address"
            },
            {
              "internalType": "address",
              "name": "delegatedTo",
              "type": "address"
            },
            {
              "internalType": "address",
              "name": "withdrawer",
              "type": "address"
            },
            {
              "internalType": "uint256",
              "name": "nonce",
              "type": "uint256"
            },
            {
              "internalType": "uint32",
              "name": "startTimestamp",
              "type": "uint32"
            },
            {
              "internalType": "contract IStrategy[]",
              "name": "strategies",
              "type": "address[]"
            },
            {
              "internalType": "uint256[]",
              "name": "shares",
              "type": "uint256[]"
            }
          ],
          "internalType": "struct IDelegationManager.Withdrawal[]",
          "name": "withdrawals",
          "type": "tuple[]"
        },
        {
          "internalType": "contract IERC20[][]",
          "name": "tokens",
          "type": "address[][]"
        },
        {
          "internalType": "uint256[]",
          "name": "middlewareTimesIndexs",
          "type": "uint256[]"
        },
        {
          "internalType": "bool[]",
          "name": "receiveAsTokens",
          "type": "bool[]"
        }
      ],
      "name": "withdrawStakedBBTC",
      "outputs": [],
      "stateMutability": "nonpayable",
      "type": "function"
    },
    {
      "inputs": [
        {
          "internalType": "uint256",
          "name": "amount",
          "type": "uint256"
        }
      ],
      "name": "withdrawStakedBBTCFromLenB",
      "outputs": [],
      "stateMutability": "nonpayable",
      "type": "function"
    },
    {
      "stateMutability": "payable",
      "type": "receive"
    }
  ],
  "transactionHash": "0x35ed6609f46274769191de1ff7d83d7db0f9afafb857c42cb5d2fac7ca0b2794",
  "args": [
    "0x7F150c293c97172C75983BD8ac084c187107eA19",
    "0x00B67E4805138325ce871D5E27DC15f994681bC1",
    "0x230B442c0802fE83DAf3d2656aaDFD16ca1E1F66"
  ],
  "numDeployments": 1,
  "solcInputHash": "c2db32cc2e204bc84fcdc6e2021388a1",
  "bytecode": "0x60e06040523480156200001157600080fd5b5060405162003eb938038062003eb983398101604081905262000034916200013a565b6001600160a01b0380841660805282811660a052811660c0526200005762000060565b5050506200018e565b600054610100900460ff1615620000cd5760405162461bcd60e51b815260206004820152602760248201527f496e697469616c697a61626c653a20636f6e747261637420697320696e697469604482015266616c697a696e6760c81b606482015260840160405180910390fd5b60005460ff908116146200011f576000805460ff191660ff9081179091556040519081527f7f26b83ff96e1f2b6a682f133852f6798a09c465da95921460cefb38474024989060200160405180910390a15b565b6001600160a01b03811681146200013757600080fd5b50565b6000806000606084860312156200015057600080fd5b83516200015d8162000121565b6020850151909350620001708162000121565b6040850151909250620001838162000121565b809150509250925092565b60805160a05160c051613cca620001ef60003960006113f901526000818161115b0152611c450152600081816106ce01528181610be4015281816110b5015281816114d1015281816117a90152818161187f0152611de30152613cca6000f3fe6080604052600436106103215760003560e01c806380faa57d116101a5578063ac8a584a116100ec578063d94ef29d11610095578063e1cecfe11161006f578063e1cecfe11461095c578063ebe2b12b1461097c578063f2fde38b14610993578063f5b541a6146109b357610328565b8063d94ef29d146108df578063dd62ed3e146108ff578063df136d651461094557610328565b8063cd3daf9d116100c6578063cd3daf9d1461088a578063cd6dc6871461089f578063d547741f146108bf57610328565b8063ac8a584a14610834578063c14f54d714610854578063c8f33c911461087357610328565b806395d89b411161014e578063a3d5b25511610128578063a3d5b255146107d4578063a457c2d7146107f4578063a9059cbb1461081457610328565b806395d89b411461078a5780639870d7fe1461079f578063a217fddf146107bf57610328565b80638da5cb5b1161017f5780638da5cb5b1461070657806391d148541461072457806392c607be1461076a57610328565b806380faa57d1461067c5780638b876347146106915780638cdc5b00146106bf57610328565b806333a100ca116102695780636d70f7ae1161021257806372627cd9116101ec57806372627cd914610625578063746928cd146106455780637b0a47ee1461066557610328565b80636d70f7ae146105ba57806370a08231146105da578063715018a61461061057610328565b8063395093511161024357806339509351146105655780633d18b91214610585578063588cf0831461059a57610328565b806333a100ca1461050e57806336568abe1461052e578063386a95251461054e57610328565b806318160ddd116102cb578063248a9ca3116102a5578063248a9ca3146104a25780632f2ff15d146104d2578063313ce567146104f257610328565b806318160ddd146104585780631c1f78eb1461046d57806323b872dd1461048257610328565b80630700037d116102fc5780630700037d14610402578063095ea7b3146104305780630c51dde41461045057610328565b80628cc2621461037d57806301ffc9a7146103b057806306fdde03146103e057610328565b3661032857005b361561037b5760405162461bcd60e51b815260206004820152600e60248201527f4e4f4e5f454d5054595f4441544100000000000000000000000000000000000060448201526064015b60405180910390fd5b005b34801561038957600080fd5b5061039d610398366004613151565b6109e7565b6040519081526020015b60405180910390f35b3480156103bc57600080fd5b506103d06103cb36600461316e565b610a67565b60405190151581526020016103a7565b3480156103ec57600080fd5b506103f5610afe565b6040516103a791906131d4565b34801561040e57600080fd5b5061039d61041d366004613151565b6101356020526000908152604090205481565b34801561043c57600080fd5b506103d061044b366004613207565b610b90565b61037b610ba8565b34801561046457600080fd5b5060355461039d565b34801561047957600080fd5b5061039d610d7d565b34801561048e57600080fd5b506103d061049d366004613233565b610d96565b3480156104ae57600080fd5b5061039d6104bd366004613274565b600090815260c9602052604090206001015490565b3480156104de57600080fd5b5061037b6104ed36600461328d565b610dba565b3480156104fe57600080fd5b50604051601281526020016103a7565b34801561051a57600080fd5b5061037b610529366004613151565b610de4565b34801561053a57600080fd5b5061037b61054936600461328d565b610e64565b34801561055a57600080fd5b5061039d6101315481565b34801561057157600080fd5b506103d0610580366004613207565b610ef0565b34801561059157600080fd5b5061037b610f2f565b3480156105a657600080fd5b5061037b6105b5366004613151565b610fb7565b3480156105c657600080fd5b506103d06105d5366004613151565b611044565b3480156105e657600080fd5b5061039d6105f5366004613151565b6001600160a01b031660009081526033602052604090205490565b34801561061c57600080fd5b5061037b611084565b34801561063157600080fd5b5061037b610640366004613274565b611096565b34801561065157600080fd5b5061037b610660366004613309565b6111d6565b34801561067157600080fd5b5061039d6101305481565b34801561068857600080fd5b5061039d611510565b34801561069d57600080fd5b5061039d6106ac366004613151565b6101346020526000908152604090205481565b3480156106cb57600080fd5b507f00000000000000000000000000000000000000000000000000000000000000005b6040516001600160a01b0390911681526020016103a7565b34801561071257600080fd5b506065546001600160a01b03166106ee565b34801561073057600080fd5b506103d061073f36600461328d565b600091825260c9602090815260408084206001600160a01b0393909316845291905290205460ff1690565b34801561077657600080fd5b5061037b610785366004613274565b611529565b34801561079657600080fd5b506103f56117de565b3480156107ab57600080fd5b5061037b6107ba366004613151565b6117ed565b3480156107cb57600080fd5b5061039d600081565b3480156107e057600080fd5b5061037b6107ef366004613233565b611875565b34801561080057600080fd5b506103d061080f366004613207565b611938565b34801561082057600080fd5b506103d061082f366004613207565b6119e2565b34801561084057600080fd5b5061037b61084f366004613151565b6119f0565b34801561086057600080fd5b5061012d546001600160a01b03166106ee565b34801561087f57600080fd5b5061039d6101325481565b34801561089657600080fd5b5061039d611a78565b3480156108ab57600080fd5b5061037b6108ba366004613207565b611ae3565b3480156108cb57600080fd5b5061037b6108da36600461328d565b611cb6565b3480156108eb57600080fd5b5061037b6108fa366004613274565b611cdb565b34801561090b57600080fd5b5061039d61091a3660046133cd565b6001600160a01b03918216600090815260346020908152604080832093909416825291909152205490565b34801561095157600080fd5b5061039d6101335481565b34801561096857600080fd5b5061037b61097736600461340b565b611dc4565b34801561098857600080fd5b5061039d61012f5481565b34801561099f57600080fd5b5061037b6109ae366004613151565b611ed5565b3480156109bf57600080fd5b5061039d7f97667070c54ef182b0f5858b034beac1b6f3089aa2d3188bb1e8929f4fa9b92981565b6001600160a01b03811660009081526101356020908152604080832054610134909252822054670de0b6b3a764000090610a1f611a78565b610a299190613463565b6001600160a01b038516600090815261012e6020526040902054610a4d9190613476565b610a57919061348d565b610a6191906134af565b92915050565b60007fffffffff0000000000000000000000000000000000000000000000000000000082167f7965db0b000000000000000000000000000000000000000000000000000000001480610a6157507f01ffc9a7000000000000000000000000000000000000000000000000000000007fffffffff00000000000000000000000000000000000000000000000000000000831614610a61565b606060368054610b0d906134c2565b80601f0160208091040260200160405190810160405280929190818152602001828054610b39906134c2565b8015610b865780601f10610b5b57610100808354040283529160200191610b86565b820191906000526020600020905b815481529060010190602001808311610b6957829003601f168201915b5050505050905090565b600033610b9e818585611f62565b5060019392505050565b7f97667070c54ef182b0f5858b034beac1b6f3089aa2d3188bb1e8929f4fa9b929610bd2816120ba565b6000610bdd816120c4565b60004790507f00000000000000000000000000000000000000000000000000000000000000006001600160a01b0316633d18b9126040518163ffffffff1660e01b8152600401600060405180830381600087803b158015610c3d57600080fd5b505af1158015610c51573d6000803e3d6000fd5b5047925060009150610c6590508383613463565b90503415610c7a57610c7734826134af565b90505b61012f544210610c9b5761013154610c92908261348d565b61013055610ce1565b60004261012f54610cac9190613463565b905060006101305482610cbf9190613476565b61013154909150610cd082856134af565b610cda919061348d565b6101305550505b61013154610cef908361348d565b610130541115610d2b576040517f08774b7800000000000000000000000000000000000000000000000000000000815260040160405180910390fd5b4261013281905561013154610d3f916134af565b61012f556040518181527fde88a922e0d3b88b24e9623efeb464919c6bf9f66857a65e2bfcf2ce87a9433d9060200160405180910390a15050505050565b60006101315461013054610d919190613476565b905090565b600033610da4858285612125565b610daf8585856121b7565b506001949350505050565b600082815260c96020526040902060010154610dd5816120ba565b610ddf83836123ab565b505050565b610dec61244d565b61012d54604080516001600160a01b03928316815291831660208301527f439ae0d36946bc1b7917756b5772ae0c0292339ebc08be0f7bd1daa4a1055372910160405180910390a161012d805473ffffffffffffffffffffffffffffffffffffffff19166001600160a01b0392909216919091179055565b6001600160a01b0381163314610ee25760405162461bcd60e51b815260206004820152602f60248201527f416363657373436f6e74726f6c3a2063616e206f6e6c792072656e6f756e636560448201527f20726f6c657320666f722073656c6600000000000000000000000000000000006064820152608401610372565b610eec82826124a7565b5050565b3360008181526034602090815260408083206001600160a01b0387168452909152812054909190610b9e9082908690610f2a9087906134af565b611f62565b610f3761252a565b33610f41816120c4565b33600090815261013560205260409020548015610fa9573360008181526101356020526040812055610f739082612583565b60405181815233907fe2403640ba68fed3a2f88b7557551d1993f84b99bb10ff833f0cf8db0c5e04869060200160405180910390a25b5050610fb5600160fb55565b565b610fbf61244d565b61013654604080516001600160a01b03928316815291831660208301527f8f807d1fabea2b2d01c6047675febe84228c625915bf3d899a420cd48644a706910160405180910390a1610136805473ffffffffffffffffffffffffffffffffffffffff19166001600160a01b038316908117909155611041903090600019611f62565b50565b6001600160a01b03811660009081527fc99cfc74cbb51adc7ca8731c432a51a31a086a1789003f0b773be6e802362bf4602052604081205460ff16610a61565b61108c61244d565b610fb560006126a3565b61109e61252a565b336110a8816120c4565b6110dd6001600160a01b037f000000000000000000000000000000000000000000000000000000000000000016333085612702565b6110e7308361279a565b33600090815261012e6020526040812080548492906111079084906134af565b909155505061012d546040517fe46842b70000000000000000000000000000000000000000000000000000000081523360048201526001600160a01b039182166024820152306044820152606481018490527f00000000000000000000000000000000000000000000000000000000000000009091169063e46842b7906084016020604051808303816000875af11580156111a6573d6000803e3d6000fd5b505050506040513d601f19601f820116820180604052508101906111ca91906134fc565b5050611041600160fb55565b6111de61252a565b336111e8816120c4565b60005b888110156113bf57338a8a8381811061120657611206613515565b9050602002810190611218919061352b565b611226906020810190613151565b6001600160a01b03161461127c5760405162461bcd60e51b815260206004820152601960248201527f57697468647261776572206d757374206265207374616b6572000000000000006044820152606401610372565b60005b8a8a8381811061129157611291613515565b90506020028101906112a3919061352b565b6112b19060a081019061354b565b90508110156113ac5761012d546001600160a01b03168b8b848181106112d9576112d9613515565b90506020028101906112eb919061352b565b6112f99060a081019061354b565b8381811061130957611309613515565b905060200201602081019061131e9190613151565b6001600160a01b03161461139a5760405162461bcd60e51b815260206004820152602260248201527f4f6e6c7920737570706f72742073744242544320746f6b656e2073747261746560448201527f67790000000000000000000000000000000000000000000000000000000000006064820152608401610372565b806113a481613595565b91505061127f565b50806113b781613595565b9150506111eb565b5030600090815260336020526040908190205490517f334043960000000000000000000000000000000000000000000000000000000081527f00000000000000000000000000000000000000000000000000000000000000006001600160a01b031690633340439690611444908d908d908d908d908d908d908d908d9060040161376f565b600060405180830381600087803b15801561145e57600080fd5b505af1158015611472573d6000803e3d6000fd5b505030600090815260336020526040812054925090506114928383613463565b905061149e308261285b565b33600090815261012e6020526040812080548392906114be908490613463565b909155506114f890506001600160a01b037f00000000000000000000000000000000000000000000000000000000000000001633836129c6565b50505050611506600160fb55565b5050505050505050565b600061012f544210611524575061012f5490565b504290565b61153161252a565b3361153b816120c4565b610136546040517f35ea6a750000000000000000000000000000000000000000000000000000000081523060048201526000916001600160a01b0316906335ea6a75906024016101e060405180830381865afa15801561159f573d6000803e3d6000fd5b505050506040513d601f19601f820116820180604052508101906115c3919061399c565b61010001516040517f70a082310000000000000000000000000000000000000000000000000000000081523360048201529091506000906001600160a01b038316906370a0823190602401602060405180830381865afa15801561162b573d6000803e3d6000fd5b505050506040513d601f19601f8201168201806040525081019061164f91906134fc565b9050836001810161165d5750805b6040516323b872dd60e01b8152336004820152306024820152604481018290526001600160a01b038416906323b872dd906064016020604051808303816000875af11580156116b0573d6000803e3d6000fd5b505050506040513d601f19601f820116820180604052508101906116d49190613abf565b50610136546040517f69328dec00000000000000000000000000000000000000000000000000000000815230600482018190526024820184905260448201526001600160a01b03909116906369328dec906064016020604051808303816000875af1158015611747573d6000803e3d6000fd5b505050506040513d601f19601f8201168201806040525081019061176b91906134fc565b50611776308261285b565b33600090815261012e602052604081208054839290611796908490613463565b909155506117d090506001600160a01b037f00000000000000000000000000000000000000000000000000000000000000001633836129c6565b50505050611041600160fb55565b606060378054610b0d906134c2565b6117f561244d565b6001600160a01b03811661184b5760405162461bcd60e51b815260206004820152601660248201527f5a65726f2061646472657373206e6f742076616c6964000000000000000000006044820152606401610372565b6110417f97667070c54ef182b0f5858b034beac1b6f3089aa2d3188bb1e8929f4fa9b929826123ab565b61187d61244d565b7f00000000000000000000000000000000000000000000000000000000000000006001600160a01b0316836001600160a01b0316036119245760405162461bcd60e51b815260206004820152602660248201527f54686520756e6465726c79696e672061737365742063616e6e6f74206265207260448201527f65736375656400000000000000000000000000000000000000000000000000006064820152608401610372565b610ddf6001600160a01b03841683836129c6565b3360008181526034602090815260408083206001600160a01b0387168452909152812054909190838110156119d55760405162461bcd60e51b815260206004820152602560248201527f45524332303a2064656372656173656420616c6c6f77616e63652062656c6f7760448201527f207a65726f0000000000000000000000000000000000000000000000000000006064820152608401610372565b610daf8286868403611f62565b600033610b9e8185856121b7565b6119f861244d565b6001600160a01b038116611a4e5760405162461bcd60e51b815260206004820152601660248201527f5a65726f2061646472657373206e6f742076616c6964000000000000000000006044820152606401610372565b6110417f97667070c54ef182b0f5858b034beac1b6f3089aa2d3188bb1e8929f4fa9b929826124a7565b6000611a8360355490565b600003611a9257506101335490565b6035546101305461013254611aa5611510565b611aaf9190613463565b611ab99190613476565b611acb90670de0b6b3a7640000613476565b611ad5919061348d565b61013354610d9191906134af565b600054610100900460ff1615808015611b035750600054600160ff909116105b80611b1d5750303b158015611b1d575060005460ff166001145b611b8f5760405162461bcd60e51b815260206004820152602e60248201527f496e697469616c697a61626c653a20636f6e747261637420697320616c72656160448201527f647920696e697469616c697a65640000000000000000000000000000000000006064820152608401610372565b6000805460ff191660011790558015611bb2576000805461ff0019166101001790555b8161013181905550611c2e6040518060400160405280601381526020017f57726170706564205374616b65642042425443000000000000000000000000008152506040518060400160405280600781526020017f7773744242544300000000000000000000000000000000000000000000000000815250612a0f565b611c36612a84565b611c3f836126a3565b611c6c307f0000000000000000000000000000000000000000000000000000000000000000600019611f62565b8015610ddf576000805461ff0019169055604051600181527f7f26b83ff96e1f2b6a682f133852f6798a09c465da95921460cefb38474024989060200160405180910390a1505050565b600082815260c96020526040902060010154611cd1816120ba565b610ddf83836124a7565b611ce361244d565b61012f544211611d815760405162461bcd60e51b815260206004820152605860248201527f50726576696f7573207265776172647320706572696f64206d7573742062652060448201527f636f6d706c657465206265666f7265206368616e67696e67207468652064757260648201527f6174696f6e20666f7220746865206e657720706572696f640000000000000000608482015260a401610372565b6101315460408051918252602082018390527fa6607d903dfdb9edeafb3fb80d166352afe31ac8ffa9a50f974e8d406a4d7e4e910160405180910390a161013155565b611dcc61252a565b33611dd6816120c4565b611e0b6001600160a01b037f000000000000000000000000000000000000000000000000000000000000000016333087612702565b611e15308561279a565b33600090815261012e602052604081208054869290611e359084906134af565b9091555050610136546040517f617ba037000000000000000000000000000000000000000000000000000000008152306004820152602481018690526001600160a01b03858116604483015261ffff851660648301529091169063617ba03790608401600060405180830381600087803b158015611eb257600080fd5b505af1158015611ec6573d6000803e3d6000fd5b5050505050610ddf600160fb55565b611edd61244d565b6001600160a01b038116611f595760405162461bcd60e51b815260206004820152602660248201527f4f776e61626c653a206e6577206f776e657220697320746865207a65726f206160448201527f64647265737300000000000000000000000000000000000000000000000000006064820152608401610372565b611041816126a3565b6001600160a01b038316611fdd5760405162461bcd60e51b8152602060048201526024808201527f45524332303a20617070726f76652066726f6d20746865207a65726f2061646460448201527f72657373000000000000000000000000000000000000000000000000000000006064820152608401610372565b6001600160a01b0382166120595760405162461bcd60e51b815260206004820152602260248201527f45524332303a20617070726f766520746f20746865207a65726f20616464726560448201527f73730000000000000000000000000000000000000000000000000000000000006064820152608401610372565b6001600160a01b0383811660008181526034602090815260408083209487168084529482529182902085905590518481527f8c5be1e5ebec7d5bd14f71427d1e84f3dd0314c0f7b2291e5b200ac8c7c3b925910160405180910390a3505050565b6110418133612af7565b6120cc611a78565b610133556120d8611510565b610132556001600160a01b03811615611041576120f4816109e7565b6001600160a01b03821660009081526101356020908152604080832093909355610133546101349091529190205550565b6001600160a01b0383811660009081526034602090815260408083209386168352929052205460001981146121b157818110156121a45760405162461bcd60e51b815260206004820152601d60248201527f45524332303a20696e73756666696369656e7420616c6c6f77616e63650000006044820152606401610372565b6121b18484848403611f62565b50505050565b6001600160a01b0383166122335760405162461bcd60e51b815260206004820152602560248201527f45524332303a207472616e736665722066726f6d20746865207a65726f20616460448201527f64726573730000000000000000000000000000000000000000000000000000006064820152608401610372565b6001600160a01b0382166122af5760405162461bcd60e51b815260206004820152602360248201527f45524332303a207472616e7366657220746f20746865207a65726f206164647260448201527f65737300000000000000000000000000000000000000000000000000000000006064820152608401610372565b6001600160a01b0383166000908152603360205260409020548181101561233e5760405162461bcd60e51b815260206004820152602660248201527f45524332303a207472616e7366657220616d6f756e742065786365656473206260448201527f616c616e636500000000000000000000000000000000000000000000000000006064820152608401610372565b6001600160a01b0380851660008181526033602052604080822086860390559286168082529083902080548601905591517fddf252ad1be2c89b69c2b068fc378daa952ba7f163c4a11628f55a4df523b3ef9061239e9086815260200190565b60405180910390a36121b1565b600082815260c9602090815260408083206001600160a01b038516845290915290205460ff16610eec57600082815260c9602090815260408083206001600160a01b03851684529091529020805460ff191660011790556124093390565b6001600160a01b0316816001600160a01b0316837f2f8788117e7eff1d82e926ec794901d17c78024a50270940304540a733656f0d60405160405180910390a45050565b6065546001600160a01b03163314610fb55760405162461bcd60e51b815260206004820181905260248201527f4f776e61626c653a2063616c6c6572206973206e6f7420746865206f776e65726044820152606401610372565b600082815260c9602090815260408083206001600160a01b038516845290915290205460ff1615610eec57600082815260c9602090815260408083206001600160a01b0385168085529252808320805460ff1916905551339285917ff6391f5c32d9c69d2a47ea670b442974b53935d1edc7fd64eb21e047a839171b9190a45050565b600260fb540361257c5760405162461bcd60e51b815260206004820152601f60248201527f5265656e7472616e637947756172643a207265656e7472616e742063616c6c006044820152606401610372565b600260fb55565b804710156125d35760405162461bcd60e51b815260206004820152601d60248201527f416464726573733a20696e73756666696369656e742062616c616e63650000006044820152606401610372565b6000826001600160a01b03168260405160006040518083038185875af1925050503d8060008114612620576040519150601f19603f3d011682016040523d82523d6000602084013e612625565b606091505b5050905080610ddf5760405162461bcd60e51b815260206004820152603a60248201527f416464726573733a20756e61626c6520746f2073656e642076616c75652c207260448201527f6563697069656e74206d617920686176652072657665727465640000000000006064820152608401610372565b600160fb55565b606580546001600160a01b0383811673ffffffffffffffffffffffffffffffffffffffff19831681179093556040519116919082907f8be0079c531659141344cd1fd0a4f28419497f9722a3daafe3b4186f6b6457e090600090a35050565b6040516001600160a01b03808516602483015283166044820152606481018290526121b19085906323b872dd60e01b906084015b60408051601f198184030181529190526020810180517bffffffffffffffffffffffffffffffffffffffffffffffffffffffff167fffffffff0000000000000000000000000000000000000000000000000000000090931692909217909152612b6c565b6001600160a01b0382166127f05760405162461bcd60e51b815260206004820152601f60248201527f45524332303a206d696e7420746f20746865207a65726f2061646472657373006044820152606401610372565b806035600082825461280291906134af565b90915550506001600160a01b0382166000818152603360209081526040808320805486019055518481527fddf252ad1be2c89b69c2b068fc378daa952ba7f163c4a11628f55a4df523b3ef910160405180910390a35050565b6001600160a01b0382166128d75760405162461bcd60e51b815260206004820152602160248201527f45524332303a206275726e2066726f6d20746865207a65726f2061646472657360448201527f73000000000000000000000000000000000000000000000000000000000000006064820152608401610372565b6001600160a01b038216600090815260336020526040902054818110156129665760405162461bcd60e51b815260206004820152602260248201527f45524332303a206275726e20616d6f756e7420657863656564732062616c616e60448201527f63650000000000000000000000000000000000000000000000000000000000006064820152608401610372565b6001600160a01b03831660008181526033602090815260408083208686039055603580548790039055518581529192917fddf252ad1be2c89b69c2b068fc378daa952ba7f163c4a11628f55a4df523b3ef910160405180910390a3505050565b6040516001600160a01b038316602482015260448101829052610ddf9084907fa9059cbb0000000000000000000000000000000000000000000000000000000090606401612736565b600054610100900460ff16612a7a5760405162461bcd60e51b815260206004820152602b60248201527f496e697469616c697a61626c653a20636f6e7472616374206973206e6f74206960448201526a6e697469616c697a696e6760a81b6064820152608401610372565b610eec8282612c54565b600054610100900460ff16612aef5760405162461bcd60e51b815260206004820152602b60248201527f496e697469616c697a61626c653a20636f6e7472616374206973206e6f74206960448201526a6e697469616c697a696e6760a81b6064820152608401610372565b610fb5612cd8565b600082815260c9602090815260408083206001600160a01b038516845290915290205460ff16610eec57612b2a81612d43565b612b35836020612d55565b604051602001612b46929190613adc565b60408051601f198184030181529082905262461bcd60e51b8252610372916004016131d4565b6000612bc1826040518060400160405280602081526020017f5361666545524332303a206c6f772d6c6576656c2063616c6c206661696c6564815250856001600160a01b0316612f859092919063ffffffff16565b9050805160001480612be2575080806020019051810190612be29190613abf565b610ddf5760405162461bcd60e51b815260206004820152602a60248201527f5361666545524332303a204552433230206f7065726174696f6e20646964206e60448201527f6f742073756363656564000000000000000000000000000000000000000000006064820152608401610372565b600054610100900460ff16612cbf5760405162461bcd60e51b815260206004820152602b60248201527f496e697469616c697a61626c653a20636f6e7472616374206973206e6f74206960448201526a6e697469616c697a696e6760a81b6064820152608401610372565b6036612ccb8382613bab565b506037610ddf8282613bab565b600054610100900460ff1661269c5760405162461bcd60e51b815260206004820152602b60248201527f496e697469616c697a61626c653a20636f6e7472616374206973206e6f74206960448201526a6e697469616c697a696e6760a81b6064820152608401610372565b6060610a616001600160a01b03831660145b60606000612d64836002613476565b612d6f9060026134af565b67ffffffffffffffff811115612d8757612d876138cf565b6040519080825280601f01601f191660200182016040528015612db1576020820181803683370190505b5090507f300000000000000000000000000000000000000000000000000000000000000081600081518110612de857612de8613515565b60200101907effffffffffffffffffffffffffffffffffffffffffffffffffffffffffffff1916908160001a9053507f780000000000000000000000000000000000000000000000000000000000000081600181518110612e4b57612e4b613515565b60200101907effffffffffffffffffffffffffffffffffffffffffffffffffffffffffffff1916908160001a9053506000612e87846002613476565b612e929060016134af565b90505b6001811115612f2f577f303132333435363738396162636465660000000000000000000000000000000085600f1660108110612ed357612ed3613515565b1a60f81b828281518110612ee957612ee9613515565b60200101907effffffffffffffffffffffffffffffffffffffffffffffffffffffffffffff1916908160001a90535060049490941c93612f2881613c6b565b9050612e95565b508315612f7e5760405162461bcd60e51b815260206004820181905260248201527f537472696e67733a20686578206c656e67746820696e73756666696369656e746044820152606401610372565b9392505050565b6060612f948484600085612f9c565b949350505050565b6060824710156130145760405162461bcd60e51b815260206004820152602660248201527f416464726573733a20696e73756666696369656e742062616c616e636520666f60448201527f722063616c6c00000000000000000000000000000000000000000000000000006064820152608401610372565b600080866001600160a01b031685876040516130309190613c82565b60006040518083038185875af1925050503d806000811461306d576040519150601f19603f3d011682016040523d82523d6000602084013e613072565b606091505b50915091506130838783838761308e565b979650505050505050565b606083156130fd5782516000036130f6576001600160a01b0385163b6130f65760405162461bcd60e51b815260206004820152601d60248201527f416464726573733a2063616c6c20746f206e6f6e2d636f6e74726163740000006044820152606401610372565b5081612f94565b612f9483838151156131125781518083602001fd5b8060405162461bcd60e51b815260040161037291906131d4565b6001600160a01b038116811461104157600080fd5b803561314c8161312c565b919050565b60006020828403121561316357600080fd5b8135612f7e8161312c565b60006020828403121561318057600080fd5b81357fffffffff0000000000000000000000000000000000000000000000000000000081168114612f7e57600080fd5b60005b838110156131cb5781810151838201526020016131b3565b50506000910152565b60208152600082518060208401526131f38160408501602087016131b0565b601f01601f19169190910160400192915050565b6000806040838503121561321a57600080fd5b82356132258161312c565b946020939093013593505050565b60008060006060848603121561324857600080fd5b83356132538161312c565b925060208401356132638161312c565b929592945050506040919091013590565b60006020828403121561328657600080fd5b5035919050565b600080604083850312156132a057600080fd5b8235915060208301356132b28161312c565b809150509250929050565b60008083601f8401126132cf57600080fd5b50813567ffffffffffffffff8111156132e757600080fd5b6020830191508360208260051b850101111561330257600080fd5b9250929050565b6000806000806000806000806080898b03121561332557600080fd5b883567ffffffffffffffff8082111561333d57600080fd5b6133498c838d016132bd565b909a50985060208b013591508082111561336257600080fd5b61336e8c838d016132bd565b909850965060408b013591508082111561338757600080fd5b6133938c838d016132bd565b909650945060608b01359150808211156133ac57600080fd5b506133b98b828c016132bd565b999c989b5096995094979396929594505050565b600080604083850312156133e057600080fd5b82356133eb8161312c565b915060208301356132b28161312c565b61ffff8116811461104157600080fd5b60008060006060848603121561342057600080fd5b8335925060208401356134328161312c565b91506040840135613442816133fb565b809150509250925092565b634e487b7160e01b600052601160045260246000fd5b81810381811115610a6157610a6161344d565b8082028115828204841417610a6157610a6161344d565b6000826134aa57634e487b7160e01b600052601260045260246000fd5b500490565b80820180821115610a6157610a6161344d565b600181811c908216806134d657607f821691505b6020821081036134f657634e487b7160e01b600052602260045260246000fd5b50919050565b60006020828403121561350e57600080fd5b5051919050565b634e487b7160e01b600052603260045260246000fd5b6000823560de1983360301811261354157600080fd5b9190910192915050565b6000808335601e1984360301811261356257600080fd5b83018035915067ffffffffffffffff82111561357d57600080fd5b6020019150600581901b360382131561330257600080fd5b6000600182016135a7576135a761344d565b5060010190565b803563ffffffff8116811461314c57600080fd5b6000808335601e198436030181126135d957600080fd5b830160208101925035905067ffffffffffffffff8111156135f957600080fd5b8060051b360382131561330257600080fd5b8183526000602080850194508260005b8581101561364957813561362e8161312c565b6001600160a01b03168752958201959082019060010161361b565b509495945050505050565b81835260007f07ffffffffffffffffffffffffffffffffffffffffffffffffffffffffffffff83111561368657600080fd5b8260051b80836020870137939093016020019392505050565b81835260006020808501808196508560051b81019150846000805b8881101561371c578385038a526136d183896135c2565b808752878701845b828110156137075783356136ec8161312c565b6001600160a01b0316825292890192908901906001016136d9565b509b88019b96505050918501916001016136ba565b509298975050505050505050565b801515811461104157600080fd5b8183526000602080850194508260005b8581101561364957813561375b8161372a565b151587529582019590820190600101613748565b60808082528101889052600060a060058a901b830181019083018b835b8c81101561388057858403609f190183528135368f900360de190181126137b257600080fd5b8e0160e081356137c18161312c565b6001600160a01b031686526020828101356137db8161312c565b6001600160a01b03168188015260406137f5848201613141565b6001600160a01b03169088015260608381013590880152613818608084016135ae565b63ffffffff16608088015261383060a08401846135c2565b8360a08a0152613843848a01828461360b565b9350505060c0613855818501856135c2565b9450888403828a0152613869848683613654565b98505050948501949390930192505060010161378c565b505050828103602084015261389681898b61369f565b905082810360408401526138ab818789613654565b905082810360608401526138c0818587613738565b9b9a5050505050505050505050565b634e487b7160e01b600052604160045260246000fd5b6040516101e0810167ffffffffffffffff81118282101715613909576139096138cf565b60405290565b60006020828403121561392157600080fd5b6040516020810181811067ffffffffffffffff82111715613944576139446138cf565b6040529151825250919050565b80516fffffffffffffffffffffffffffffffff8116811461314c57600080fd5b805164ffffffffff8116811461314c57600080fd5b805161314c816133fb565b805161314c8161312c565b60006101e082840312156139af57600080fd5b6139b76138e5565b6139c1848461390f565b81526139cf60208401613951565b60208201526139e060408401613951565b60408201526139f160608401613951565b6060820152613a0260808401613951565b6080820152613a1360a08401613951565b60a0820152613a2460c08401613971565b60c0820152613a3560e08401613986565b60e0820152610100613a48818501613991565b90820152610120613a5a848201613991565b90820152610140613a6c848201613991565b90820152610160613a7e848201613991565b90820152610180613a90848201613951565b908201526101a0613aa2848201613951565b908201526101c0613ab4848201613951565b908201529392505050565b600060208284031215613ad157600080fd5b8151612f7e8161372a565b7f416363657373436f6e74726f6c3a206163636f756e7420000000000000000000815260008351613b148160178501602088016131b0565b7f206973206d697373696e6720726f6c65200000000000000000000000000000006017918401918201528351613b518160288401602088016131b0565b01602801949350505050565b601f821115610ddf57600081815260208120601f850160051c81016020861015613b845750805b601f850160051c820191505b81811015613ba357828155600101613b90565b505050505050565b815167ffffffffffffffff811115613bc557613bc56138cf565b613bd981613bd384546134c2565b84613b5d565b602080601f831160018114613c0e5760008415613bf65750858301515b600019600386901b1c1916600185901b178555613ba3565b600085815260208120601f198616915b82811015613c3d57888601518255948401946001909101908401613c1e565b5085821015613c5b5787850151600019600388901b60f8161c191681555b5050505050600190811b01905550565b600081613c7a57613c7a61344d565b506000190190565b600082516135418184602087016131b056fea264697066735822122071422cb7d2c7abc8a5815f4ae6afde2e152b9d29531fa49bd00ca2c144bc1b5e64736f6c63430008140033",
  "devdoc": {
    "errors": {
      "ProvidedRewardTooHigh()": [
        {
          "details": "This error is thrown when the reward provided is too high and could cause an overflow. It ensures that the reward rate stays within the right range."
        }
      ]
    },
    "events": {
      "Approval(address,address,uint256)": {
        "details": "Emitted when the allowance of a `spender` for an `owner` is set by a call to {approve}. `value` is the new allowance."
      },
      "Initialized(uint8)": {
        "details": "Triggered when the contract has been initialized or reinitialized."
      },
      "RewardAdded(uint256)": {
        "details": "This event is emitted when a new reward is added to the contract. It includes the amount of the reward that was added."
      },
      "RewardPaid(address,uint256)": {
        "details": "This event is emitted when a user's reward is paid out. It includes the address of the user and the amount of the reward that was paid."
      },
      "RoleAdminChanged(bytes32,bytes32,bytes32)": {
        "details": "Emitted when `newAdminRole` is set as ``role``'s admin role, replacing `previousAdminRole` `DEFAULT_ADMIN_ROLE` is the starting admin for all roles, despite {RoleAdminChanged} not being emitted signaling this. _Available since v3.1._"
      },
      "RoleGranted(bytes32,address,address)": {
        "details": "Emitted when `account` is granted `role`. `sender` is the account that originated the contract call, an admin role bearer except when using {AccessControl-_setupRole}."
      },
      "RoleRevoked(bytes32,address,address)": {
        "details": "Emitted when `account` is revoked `role`. `sender` is the account that originated the contract call:   - if using `revokeRole`, it is the admin role bearer   - if using `renounceRole`, it is the role bearer (i.e. `account`)"
      },
      "Transfer(address,address,uint256)": {
        "details": "Emitted when `value` tokens are moved from one account (`from`) to another (`to`). Note that `value` may be zero."
      }
    },
    "kind": "dev",
    "methods": {
      "allowance(address,address)": {
        "details": "See {IERC20-allowance}."
      },
      "approve(address,uint256)": {
        "details": "See {IERC20-approve}. NOTE: If `amount` is the maximum `uint256`, the allowance is not updated on `transferFrom`. This is semantically equivalent to an infinite approval. Requirements: - `spender` cannot be the zero address."
      },
      "balanceOf(address)": {
        "details": "See {IERC20-balanceOf}."
      },
      "decimals()": {
        "details": "Returns the number of decimals used to get its user representation. For example, if `decimals` equals `2`, a balance of `505` tokens should be displayed to a user as `5.05` (`505 / 10 ** 2`). Tokens usually opt for a value of 18, imitating the relationship between Ether and Wei. This is the default value returned by this function, unless it's overridden. NOTE: This information is only used for _display_ purposes: it in no way affects any of the arithmetic of the contract, including {IERC20-balanceOf} and {IERC20-transfer}."
      },
      "decreaseAllowance(address,uint256)": {
        "details": "Atomically decreases the allowance granted to `spender` by the caller. This is an alternative to {approve} that can be used as a mitigation for problems described in {IERC20-approve}. Emits an {Approval} event indicating the updated allowance. Requirements: - `spender` cannot be the zero address. - `spender` must have allowance for the caller of at least `subtractedValue`."
      },
      "depositStakedBBTCToLenB(uint256,address,uint16)": {
        "details": "deposits wstBBTC into the reserve, using stBBTC. A corresponding amount of the overlying asset (aTokens) is minted.",
        "params": {
          "onBehalfOf": "address of the user who will receive the aTokens representing the deposit",
          "referralCode": "integrators are assigned a referral code and can potentially receive rewards.*"
        }
      },
      "earned(address)": {
        "details": "This function calculates the earned rewards by multiplying the balance of the account with the difference between the reward per token and the reward per token paid to the account.",
        "params": {
          "account": "The account to calculate the earned rewards for."
        },
        "returns": {
          "_0": "The calculated earned rewards for the account."
        }
      },
      "emergencyTokenTransfer(address,address,uint256)": {
        "details": "transfer ERC20 from the utility contract, for ERC20 recovery in case of stuck tokens due direct transfers to the contract address.",
        "params": {
          "amount": "amount to send",
          "to": "recipient of the transfer",
          "token": "token to transfer"
        }
      },
      "getReward()": {
        "details": "It updates the reward for the user before transferring."
      },
      "getRewardForDuration()": {
        "details": "This is used to get the total reward that will be distributed over the entire duration.",
        "returns": {
          "_0": "The total reward for the duration."
        }
      },
      "getRoleAdmin(bytes32)": {
        "details": "Returns the admin role that controls `role`. See {grantRole} and {revokeRole}. To change a role's admin, use {_setRoleAdmin}."
      },
      "getStakedBBTCAddress()": {
        "details": "Get stBBTC address used by WrappedStakedBBTCGateway"
      },
      "getStrategyAddress()": {
        "details": "Get stBBTC strategy address used by WrappedStakedBBTCGateway"
      },
      "grantRole(bytes32,address)": {
        "details": "Grants `role` to `account`. If `account` had not been already granted `role`, emits a {RoleGranted} event. Requirements: - the caller must have ``role``'s admin role. May emit a {RoleGranted} event."
      },
      "hasRole(bytes32,address)": {
        "details": "Returns `true` if `account` has been granted `role`."
      },
      "increaseAllowance(address,uint256)": {
        "details": "Atomically increases the allowance granted to `spender` by the caller. This is an alternative to {approve} that can be used as a mitigation for problems described in {IERC20-approve}. Emits an {Approval} event indicating the updated allowance. Requirements: - `spender` cannot be the zero address."
      },
      "lastTimeRewardApplicable()": {
        "details": "This function checks if the current block timestamp is less than the period finish time. If it is, it returns the block timestamp, otherwise it returns the period finish time. This is used to ensure that rewards are only applicable within the specified period.",
        "returns": {
          "_0": "The last time the reward is applicable."
        }
      },
      "name()": {
        "details": "Returns the name of the token."
      },
      "notifyRewardAmount()": {
        "details": "It updates the reward rate and the finish period of the reward."
      },
      "owner()": {
        "details": "Returns the address of the current owner."
      },
      "renounceOwnership()": {
        "details": "Leaves the contract without owner. It will not be possible to call `onlyOwner` functions. Can only be called by the current owner. NOTE: Renouncing ownership will leave the contract without an owner, thereby disabling any functionality that is only available to the owner."
      },
      "renounceRole(bytes32,address)": {
        "details": "Revokes `role` from the calling account. Roles are often managed via {grantRole} and {revokeRole}: this function's purpose is to provide a mechanism for accounts to lose their privileges if they are compromised (such as when a trusted device is misplaced). If the calling account had been revoked `role`, emits a {RoleRevoked} event. Requirements: - the caller must be `account`. May emit a {RoleRevoked} event."
      },
      "revokeRole(bytes32,address)": {
        "details": "Revokes `role` from `account`. If `account` had been granted `role`, emits a {RoleRevoked} event. Requirements: - the caller must have ``role``'s admin role. May emit a {RoleRevoked} event."
      },
      "rewardPerToken()": {
        "details": "This function calculates the reward per token based on the total supply of tokens. This is used to distribute the rewards proportionally to the token holders.",
        "returns": {
          "_0": "The calculated reward per token."
        }
      },
      "supportsInterface(bytes4)": {
        "details": "See {IERC165-supportsInterface}."
      },
      "symbol()": {
        "details": "Returns the symbol of the token, usually a shorter version of the name."
      },
      "totalSupply()": {
        "details": "See {IERC20-totalSupply}."
      },
      "transfer(address,uint256)": {
        "details": "See {IERC20-transfer}. Requirements: - `to` cannot be the zero address. - the caller must have a balance of at least `amount`."
      },
      "transferFrom(address,address,uint256)": {
        "details": "See {IERC20-transferFrom}. Emits an {Approval} event indicating the updated allowance. This is not required by the EIP. See the note at the beginning of {ERC20}. NOTE: Does not update the allowance if the current allowance is the maximum `uint256`. Requirements: - `from` and `to` cannot be the zero address. - `from` must have a balance of at least `amount`. - the caller must have allowance for ``from``'s tokens of at least `amount`."
      },
      "transferOwnership(address)": {
        "details": "Transfers ownership of the contract to a new account (`newOwner`). Can only be called by the current owner."
      },
      "updateLenBPool(address)": {
        "params": {
          "_newPool": "New LenB poll address"
        }
      },
      "withdrawStakedBBTCFromLenB(uint256)": {
        "details": "withdraws the wstBBTC _reserves of msg.sender.",
        "params": {
          "amount": "amount of aWstBBTC to withdraw and receive stBBTC"
        }
      }
    },
    "stateVariables": {
      "__gap": {
        "details": "This empty reserved space is put in place to allow future versions to add new variables without shifting down storage in the inheritance chain. See https://docs.openzeppelin.com/contracts/4.x/upgradeable#storage_gaps"
      },
      "lastUpdateTime": {
        "details": "This is the timestamp of the last time the rewards were updated. It is used to calculate the reward per token and the earned rewards."
      },
      "periodFinish": {
        "details": "This is the timestamp when the reward period will end. Rewards are only applicable within the period specified by this variable."
      },
      "rewardPerTokenStored": {
        "details": "This is the stored value of the reward per token. It is used to calculate the reward per token and the earned rewards."
      },
      "rewardRate": {
        "details": "This is the rate at which rewards are distributed. It is calculated based on the total reward and the duration of the reward period."
      },
      "rewards": {
        "details": "This mapping stores the rewards for each user. It is updated whenever a user stakes or withdraws tokens, or gets their reward."
      },
      "rewardsDuration": {
        "details": "This is the duration for which the rewards are applicable. The rewards are distributed over this period at the rate specified by rewardRate."
      },
      "userRewardPerTokenPaid": {
        "details": "This mapping stores the reward per token paid to each user. It is used to calculate the earned rewards for each user."
      }
    },
    "version": 1
  },
  "userdoc": {
    "errors": {
      "ProvidedRewardTooHigh()": [
        {
          "notice": "Error thrown when the provided reward is too high."
        }
      ]
    },
    "events": {
      "RewardAdded(uint256)": {
        "notice": "Emitted when a reward is added."
      },
      "RewardPaid(address,uint256)": {
        "notice": "Emitted when a reward is paid to a user."
      },
      "SetStrategy(address,address)": {
        "notice": "Emitted when strategy config."
      },
      "UpdateLenBPool(address,address)": {
        "notice": "Emitted when LenB pool config."
      },
      "UpdateOperator(address,address)": {
        "notice": "Emitted when operator address updated."
      },
      "UpdateRewardsDuration(uint256,uint256)": {
        "notice": "Emitted when rewards duration updated."
      }
    },
    "kind": "user",
    "methods": {
      "earned(address)": {
        "notice": "Calculates the earned rewards for a given account."
      },
      "getReward()": {
        "notice": "Allows a user to get their reward."
      },
      "getRewardForDuration()": {
        "notice": "Calculates the reward for the entire duration."
      },
      "lastTimeRewardApplicable()": {
        "notice": "Determines the last time the reward is applicable."
      },
      "lastUpdateTime()": {
        "notice": "The last time the rewards were updated."
      },
      "notifyRewardAmount()": {
        "notice": "Notifies the contract about the reward amount."
      },
      "periodFinish()": {
        "notice": "The time when the reward period finishes."
      },
      "rewardPerToken()": {
        "notice": "Calculates the reward per token."
      },
      "rewardPerTokenStored()": {
        "notice": "The stored reward per token."
      },
      "rewardRate()": {
        "notice": "The rate of the reward."
      },
      "rewards(address)": {
        "notice": "The rewards for each user."
      },
      "rewardsDuration()": {
        "notice": "The duration of the reward period."
      },
      "updateLenBPool(address)": {
        "notice": "Called by owner to update the LenB Pool"
      },
      "userRewardPerTokenPaid(address)": {
        "notice": "The reward per token paid to each user."
      }
    },
    "version": 1
  },
  "storageLayout": {
    "storage": [
      {
        "astId": 549,
        "contract": "contracts/periphery/WrappedStakedBBTCGatewayV2.sol:WrappedStakedBBTCGatewayV2",
        "label": "_initialized",
        "offset": 0,
        "slot": "0",
        "type": "t_uint8"
      },
      {
        "astId": 552,
        "contract": "contracts/periphery/WrappedStakedBBTCGatewayV2.sol:WrappedStakedBBTCGatewayV2",
        "label": "_initializing",
        "offset": 1,
        "slot": "0",
        "type": "t_bool"
      },
      {
        "astId": 1892,
        "contract": "contracts/periphery/WrappedStakedBBTCGatewayV2.sol:WrappedStakedBBTCGatewayV2",
        "label": "__gap",
        "offset": 0,
        "slot": "1",
        "type": "t_array(t_uint256)50_storage"
      },
      {
        "astId": 816,
        "contract": "contracts/periphery/WrappedStakedBBTCGatewayV2.sol:WrappedStakedBBTCGatewayV2",
        "label": "_balances",
        "offset": 0,
        "slot": "51",
        "type": "t_mapping(t_address,t_uint256)"
      },
      {
        "astId": 822,
        "contract": "contracts/periphery/WrappedStakedBBTCGatewayV2.sol:WrappedStakedBBTCGatewayV2",
        "label": "_allowances",
        "offset": 0,
        "slot": "52",
        "type": "t_mapping(t_address,t_mapping(t_address,t_uint256))"
      },
      {
        "astId": 824,
        "contract": "contracts/periphery/WrappedStakedBBTCGatewayV2.sol:WrappedStakedBBTCGatewayV2",
        "label": "_totalSupply",
        "offset": 0,
        "slot": "53",
        "type": "t_uint256"
      },
      {
        "astId": 826,
        "contract": "contracts/periphery/WrappedStakedBBTCGatewayV2.sol:WrappedStakedBBTCGatewayV2",
        "label": "_name",
        "offset": 0,
        "slot": "54",
        "type": "t_string_storage"
      },
      {
        "astId": 828,
        "contract": "contracts/periphery/WrappedStakedBBTCGatewayV2.sol:WrappedStakedBBTCGatewayV2",
        "label": "_symbol",
        "offset": 0,
        "slot": "55",
        "type": "t_string_storage"
      },
      {
        "astId": 1408,
        "contract": "contracts/periphery/WrappedStakedBBTCGatewayV2.sol:WrappedStakedBBTCGatewayV2",
        "label": "__gap",
        "offset": 0,
        "slot": "56",
        "type": "t_array(t_uint256)45_storage"
      },
      {
        "astId": 421,
        "contract": "contracts/periphery/WrappedStakedBBTCGatewayV2.sol:WrappedStakedBBTCGatewayV2",
        "label": "_owner",
        "offset": 0,
        "slot": "101",
        "type": "t_address"
      },
      {
        "astId": 541,
        "contract": "contracts/periphery/WrappedStakedBBTCGatewayV2.sol:WrappedStakedBBTCGatewayV2",
        "label": "__gap",
        "offset": 0,
        "slot": "102",
        "type": "t_array(t_uint256)49_storage"
      },
      {
        "astId": 2166,
        "contract": "contracts/periphery/WrappedStakedBBTCGatewayV2.sol:WrappedStakedBBTCGatewayV2",
        "label": "__gap",
        "offset": 0,
        "slot": "151",
        "type": "t_array(t_uint256)50_storage"
      },
      {
        "astId": 28,
        "contract": "contracts/periphery/WrappedStakedBBTCGatewayV2.sol:WrappedStakedBBTCGatewayV2",
        "label": "_roles",
        "offset": 0,
        "slot": "201",
        "type": "t_mapping(t_bytes32,t_struct(RoleData)23_storage)"
      },
      {
        "astId": 335,
        "contract": "contracts/periphery/WrappedStakedBBTCGatewayV2.sol:WrappedStakedBBTCGatewayV2",
        "label": "__gap",
        "offset": 0,
        "slot": "202",
        "type": "t_array(t_uint256)49_storage"
      },
      {
        "astId": 726,
        "contract": "contracts/periphery/WrappedStakedBBTCGatewayV2.sol:WrappedStakedBBTCGatewayV2",
        "label": "_status",
        "offset": 0,
        "slot": "251",
        "type": "t_uint256"
      },
      {
        "astId": 795,
        "contract": "contracts/periphery/WrappedStakedBBTCGatewayV2.sol:WrappedStakedBBTCGatewayV2",
        "label": "__gap",
        "offset": 0,
        "slot": "252",
        "type": "t_array(t_uint256)49_storage"
      },
      {
        "astId": 5991,
        "contract": "contracts/periphery/WrappedStakedBBTCGatewayV2.sol:WrappedStakedBBTCGatewayV2",
        "label": "strategy",
        "offset": 0,
        "slot": "301",
        "type": "t_contract(IStrategy)5607"
      },
      {
        "astId": 5995,
        "contract": "contracts/periphery/WrappedStakedBBTCGatewayV2.sol:WrappedStakedBBTCGatewayV2",
        "label": "_balancesOfStBBTC",
        "offset": 0,
        "slot": "302",
        "type": "t_mapping(t_address,t_uint256)"
      },
      {
        "astId": 5998,
        "contract": "contracts/periphery/WrappedStakedBBTCGatewayV2.sol:WrappedStakedBBTCGatewayV2",
        "label": "periodFinish",
        "offset": 0,
        "slot": "303",
        "type": "t_uint256"
      },
      {
        "astId": 6001,
        "contract": "contracts/periphery/WrappedStakedBBTCGatewayV2.sol:WrappedStakedBBTCGatewayV2",
        "label": "rewardRate",
        "offset": 0,
        "slot": "304",
        "type": "t_uint256"
      },
      {
        "astId": 6004,
        "contract": "contracts/periphery/WrappedStakedBBTCGatewayV2.sol:WrappedStakedBBTCGatewayV2",
        "label": "rewardsDuration",
        "offset": 0,
        "slot": "305",
        "type": "t_uint256"
      },
      {
        "astId": 6007,
        "contract": "contracts/periphery/WrappedStakedBBTCGatewayV2.sol:WrappedStakedBBTCGatewayV2",
        "label": "lastUpdateTime",
        "offset": 0,
        "slot": "306",
        "type": "t_uint256"
      },
      {
        "astId": 6010,
        "contract": "contracts/periphery/WrappedStakedBBTCGatewayV2.sol:WrappedStakedBBTCGatewayV2",
        "label": "rewardPerTokenStored",
        "offset": 0,
        "slot": "307",
        "type": "t_uint256"
      },
      {
        "astId": 6015,
        "contract": "contracts/periphery/WrappedStakedBBTCGatewayV2.sol:WrappedStakedBBTCGatewayV2",
        "label": "userRewardPerTokenPaid",
        "offset": 0,
        "slot": "308",
        "type": "t_mapping(t_address,t_uint256)"
      },
      {
        "astId": 6020,
        "contract": "contracts/periphery/WrappedStakedBBTCGatewayV2.sol:WrappedStakedBBTCGatewayV2",
        "label": "rewards",
        "offset": 0,
        "slot": "309",
        "type": "t_mapping(t_address,t_uint256)"
      },
      {
        "astId": 6023,
        "contract": "contracts/periphery/WrappedStakedBBTCGatewayV2.sol:WrappedStakedBBTCGatewayV2",
        "label": "POOL",
        "offset": 0,
        "slot": "310",
        "type": "t_contract(IPool)5185"
      },
      {
        "astId": 6979,
        "contract": "contracts/periphery/WrappedStakedBBTCGatewayV2.sol:WrappedStakedBBTCGatewayV2",
        "label": "__gap",
        "offset": 0,
        "slot": "311",
        "type": "t_array(t_uint256)48_storage"
      }
    ],
    "types": {
      "t_address": {
        "encoding": "inplace",
        "label": "address",
        "numberOfBytes": "20"
      },
      "t_array(t_uint256)45_storage": {
        "base": "t_uint256",
        "encoding": "inplace",
        "label": "uint256[45]",
        "numberOfBytes": "1440"
      },
      "t_array(t_uint256)48_storage": {
        "base": "t_uint256",
        "encoding": "inplace",
        "label": "uint256[48]",
        "numberOfBytes": "1536"
      },
      "t_array(t_uint256)49_storage": {
        "base": "t_uint256",
        "encoding": "inplace",
        "label": "uint256[49]",
        "numberOfBytes": "1568"
      },
      "t_array(t_uint256)50_storage": {
        "base": "t_uint256",
        "encoding": "inplace",
        "label": "uint256[50]",
        "numberOfBytes": "1600"
      },
      "t_bool": {
        "encoding": "inplace",
        "label": "bool",
        "numberOfBytes": "1"
      },
      "t_bytes32": {
        "encoding": "inplace",
        "label": "bytes32",
        "numberOfBytes": "32"
      },
      "t_contract(IPool)5185": {
        "encoding": "inplace",
        "label": "contract IPool",
        "numberOfBytes": "20"
      },
      "t_contract(IStrategy)5607": {
        "encoding": "inplace",
        "label": "contract IStrategy",
        "numberOfBytes": "20"
      },
      "t_mapping(t_address,t_bool)": {
        "encoding": "mapping",
        "key": "t_address",
        "label": "mapping(address => bool)",
        "numberOfBytes": "32",
        "value": "t_bool"
      },
      "t_mapping(t_address,t_mapping(t_address,t_uint256))": {
        "encoding": "mapping",
        "key": "t_address",
        "label": "mapping(address => mapping(address => uint256))",
        "numberOfBytes": "32",
        "value": "t_mapping(t_address,t_uint256)"
      },
      "t_mapping(t_address,t_uint256)": {
        "encoding": "mapping",
        "key": "t_address",
        "label": "mapping(address => uint256)",
        "numberOfBytes": "32",
        "value": "t_uint256"
      },
      "t_mapping(t_bytes32,t_struct(RoleData)23_storage)": {
        "encoding": "mapping",
        "key": "t_bytes32",
        "label": "mapping(bytes32 => struct AccessControlUpgradeable.RoleData)",
        "numberOfBytes": "32",
        "value": "t_struct(RoleData)23_storage"
      },
      "t_string_storage": {
        "encoding": "bytes",
        "label": "string",
        "numberOfBytes": "32"
      },
      "t_struct(RoleData)23_storage": {
        "encoding": "inplace",
        "label": "struct AccessControlUpgradeable.RoleData",
        "members": [
          {
            "astId": 20,
            "contract": "contracts/periphery/WrappedStakedBBTCGatewayV2.sol:WrappedStakedBBTCGatewayV2",
            "label": "members",
            "offset": 0,
            "slot": "0",
            "type": "t_mapping(t_address,t_bool)"
          },
          {
            "astId": 22,
            "contract": "contracts/periphery/WrappedStakedBBTCGatewayV2.sol:WrappedStakedBBTCGatewayV2",
            "label": "adminRole",
            "offset": 0,
            "slot": "1",
            "type": "t_bytes32"
          }
        ],
        "numberOfBytes": "64"
      },
      "t_uint256": {
        "encoding": "inplace",
        "label": "uint256",
        "numberOfBytes": "32"
      },
      "t_uint8": {
        "encoding": "inplace",
        "label": "uint8",
        "numberOfBytes": "1"
      }
    }
  }
}