{
  "address": "0x2430f99ee4d4B097f2424A19365e79Fd37fE148D",
  "abi": [
    {
      "inputs": [],
      "name": "foo",
      "outputs": [],
      "stateMutability": "nonpayable",
      "type": "function"
    }
  ],
  "transactionHash": "0xd823983600cb162cf2c28f4ff5a55f1a0fcf38498be1df834188d7e5113e9269",
  "args": [],
  "numDeployments": 1,
  "solcInputHash": "840031ada70ec4148538db51328a7190",
  "bytecode": "0x6080604052348015600f57600080fd5b50606580601d6000396000f3fe6080604052348015600f57600080fd5b506004361060285760003560e01c8063c298557814602d575b600080fd5b00fea2646970667358221220951ec01a6fcd48084beaba14e9192c2fe34ea825b59ce824ba40ccc85727e8f464736f6c63430008140033",
  "devdoc": {
    "kind": "dev",
    "methods": {},
    "version": 1
  },
  "userdoc": {
    "kind": "user",
    "methods": {},
    "version": 1
  },
  "storageLayout": {
    "storage": [],
    "types": null
  }
}