{
  "address": "0xd7E240bDE89EaE9166a126a7Fb7A68EBE64f8A27",
  "abi": [
    {
      "inputs": [],
      "name": "foo",
      "outputs": [],
      "stateMutability": "nonpayable",
      "type": "function"
    }
  ],
  "transactionHash": "0x062ed7dbe5e1070a0be66c7907c660c91a952230eb0ce25e84e492f206f5833f",
  "args": [],
  "numDeployments": 1,
  "solcInputHash": "840031ada70ec4148538db51328a7190",
  "bytecode": "0x6080604052348015600f57600080fd5b50606580601d6000396000f3fe6080604052348015600f57600080fd5b506004361060285760003560e01c8063c298557814602d575b600080fd5b00fea2646970667358221220951ec01a6fcd48084beaba14e9192c2fe34ea825b59ce824ba40ccc85727e8f464736f6c63430008140033",
  "devdoc": {
    "kind": "dev",
    "methods": {},
    "version": 1
  },
  "userdoc": {
    "kind": "user",
    "methods": {},
    "version": 1
  },
  "storageLayout": {
    "storage": [],
    "types": null
  }
}