{
  "address": "0x0D6f819F9D798DBe8F52E7C913b2309056A5639c",
  "abi": [
    {
      "inputs": [
        {
          "internalType": "address",
          "name": "_uniBTC",
          "type": "address"
        }
      ],
      "stateMutability": "nonpayable",
      "type": "constructor"
    },
    {
      "anonymous": false,
      "inputs": [
        {
          "indexed": false,
          "internalType": "address",
          "name": "token",
          "type": "address"
        },
        {
          "indexed": false,
          "internalType": "uint256",
          "name": "amount",
          "type": "uint256"
        }
      ],
      "name": "Minted",
      "type": "event"
    },
    {
      "anonymous": false,
      "inputs": [
        {
          "indexed": true,
          "internalType": "address",
          "name": "previousOwner",
          "type": "address"
        },
        {
          "indexed": true,
          "internalType": "address",
          "name": "newOwner",
          "type": "address"
        }
      ],
      "name": "OwnershipTransferred",
      "type": "event"
    },
    {
      "anonymous": false,
      "inputs": [
        {
          "indexed": false,
          "internalType": "address",
          "name": "token",
          "type": "address"
        },
        {
          "indexed": false,
          "internalType": "uint256",
          "name": "amount",
          "type": "uint256"
        }
      ],
      "name": "Redeemed",
      "type": "event"
    },
    {
      "anonymous": false,
      "inputs": [],
      "name": "RedemptionOff",
      "type": "event"
    },
    {
      "anonymous": false,
      "inputs": [],
      "name": "RedemptionOn",
      "type": "event"
    },
    {
      "anonymous": false,
      "inputs": [
        {
          "indexed": false,
          "internalType": "address",
          "name": "token",
          "type": "address"
        }
      ],
      "name": "TokenPaused",
      "type": "event"
    },
    {
      "anonymous": false,
      "inputs": [
        {
          "indexed": false,
          "internalType": "address",
          "name": "token",
          "type": "address"
        }
      ],
      "name": "TokenUnpaused",
      "type": "event"
    },
    {
      "anonymous": false,
      "inputs": [
        {
          "indexed": false,
          "internalType": "address",
          "name": "token",
          "type": "address"
        },
        {
          "indexed": false,
          "internalType": "uint256",
          "name": "amount",
          "type": "uint256"
        },
        {
          "indexed": false,
          "internalType": "address",
          "name": "target",
          "type": "address"
        }
      ],
      "name": "Withdrawed",
      "type": "event"
    },
    {
      "inputs": [],
      "name": "EXCHANGE_RATE_BASE",
      "outputs": [
        {
          "internalType": "uint256",
          "name": "",
          "type": "uint256"
        }
      ],
      "stateMutability": "view",
      "type": "function"
    },
    {
      "inputs": [],
      "name": "NATIVE_BTC",
      "outputs": [
        {
          "internalType": "address",
          "name": "",
          "type": "address"
        }
      ],
      "stateMutability": "view",
      "type": "function"
    },
    {
      "inputs": [],
      "name": "NATIVE_BTC_DECIMALS",
      "outputs": [
        {
          "internalType": "uint8",
          "name": "",
          "type": "uint8"
        }
      ],
      "stateMutability": "view",
      "type": "function"
    },
    {
      "inputs": [
        {
          "internalType": "address",
          "name": "",
          "type": "address"
        }
      ],
      "name": "caps",
      "outputs": [
        {
          "internalType": "uint256",
          "name": "",
          "type": "uint256"
        }
      ],
      "stateMutability": "view",
      "type": "function"
    },
    {
      "inputs": [],
      "name": "mint",
      "outputs": [],
      "stateMutability": "payable",
      "type": "function"
    },
    {
      "inputs": [
        {
          "internalType": "address",
          "name": "_token",
          "type": "address"
        },
        {
          "internalType": "uint256",
          "name": "_amount",
          "type": "uint256"
        }
      ],
      "name": "mint",
      "outputs": [],
      "stateMutability": "nonpayable",
      "type": "function"
    },
    {
      "inputs": [],
      "name": "owner",
      "outputs": [
        {
          "internalType": "address",
          "name": "",
          "type": "address"
        }
      ],
      "stateMutability": "view",
      "type": "function"
    },
    {
      "inputs": [
        {
          "internalType": "address",
          "name": "_token",
          "type": "address"
        },
        {
          "internalType": "uint256",
          "name": "_amount",
          "type": "uint256"
        }
      ],
      "name": "redeem",
      "outputs": [],
      "stateMutability": "nonpayable",
      "type": "function"
    },
    {
      "inputs": [
        {
          "internalType": "uint256",
          "name": "_amount",
          "type": "uint256"
        }
      ],
      "name": "redeem",
      "outputs": [],
      "stateMutability": "nonpayable",
      "type": "function"
    },
    {
      "inputs": [],
      "name": "renounceOwnership",
      "outputs": [],
      "stateMutability": "nonpayable",
      "type": "function"
    },
    {
      "inputs": [
        {
          "internalType": "address",
          "name": "_token",
          "type": "address"
        },
        {
          "internalType": "uint256",
          "name": "_cap",
          "type": "uint256"
        }
      ],
      "name": "setCap",
      "outputs": [],
      "stateMutability": "nonpayable",
      "type": "function"
    },
    {
      "inputs": [
        {
          "internalType": "address",
          "name": "newOwner",
          "type": "address"
        }
      ],
      "name": "transferOwnership",
      "outputs": [],
      "stateMutability": "nonpayable",
      "type": "function"
    },
    {
      "inputs": [],
      "name": "uniBTC",
      "outputs": [
        {
          "internalType": "address",
          "name": "",
          "type": "address"
        }
      ],
      "stateMutability": "view",
      "type": "function"
    }
  ],
  "transactionHash": "0xf62e3ea2a1ea6e8e1c2cd34b7fa0ebec3954589b0e514ed0a88caea7e3ad5be9",
  "args": [
    "0x419791890a7F02DD6FCEA028d33bA62C9f3cA276"
  ],
  "numDeployments": 1,
  "solcInputHash": "b405f3bf3daddeacf0d5c6e7e9b53468",
  "bytecode": "0x60a060405234801561001057600080fd5b5060405161142038038061142083398101604081905261002f91610099565b61003833610049565b6001600160a01b03166080526100c9565b600080546001600160a01b038381166001600160a01b0319831681178455604051919092169283917f8be0079c531659141344cd1fd0a4f28419497f9722a3daafe3b4186f6b6457e09190a35050565b6000602082840312156100ab57600080fd5b81516001600160a01b03811681146100c257600080fd5b9392505050565b60805161132061010060003960008181610178015281816105ca015281816106e9015281816108fb0152610ad101526113206000f3fe6080604052600436106100d25760003560e01c8063715018a61161007f5780638e702f45116100595780638e702f4514610228578063b7b038da1461024f578063db006a7514610268578063f2fde38b1461028857600080fd5b8063715018a6146101d557806380ad2cf3146101ea5780638da5cb5b1461020a57600080fd5b806340c10f19116100b057806340c10f191461014657806359f3d39b1461016657806366d97b211461019a57600080fd5b80631249c58b146100d75780631e9a6950146100e15780633af02ff314610101575b600080fd5b6100df6102a8565b005b3480156100ed57600080fd5b506100df6100fc36600461114c565b6102b4565b34801561010d57600080fd5b5061012973bedfffffffffffffffffffffffffffffffffffff81565b6040516001600160a01b0390911681526020015b60405180910390f35b34801561015257600080fd5b506100df61016136600461114c565b6102c3565b34801561017257600080fd5b506101297f000000000000000000000000000000000000000000000000000000000000000081565b3480156101a657600080fd5b506101c76101b5366004611176565b60016020526000908152604090205481565b60405190815260200161013d565b3480156101e157600080fd5b506100df6102ce565b3480156101f657600080fd5b506100df61020536600461114c565b6102e0565b34801561021657600080fd5b506000546001600160a01b0316610129565b34801561023457600080fd5b5061023d601281565b60405160ff909116815260200161013d565b34801561025b57600080fd5b506101c76402540be40081565b34801561027457600080fd5b506100df610283366004611198565b61044c565b34801561029457600080fd5b506100df6102a3366004611176565b610459565b6102b233346104e6565b565b6102bf338383610679565b5050565b6102bf3383836107a3565b6102d66109a0565b6102b260006109fa565b6102e86109a0565b6001600160a01b0382166103435760405162461bcd60e51b815260206004820152600660248201527f535953303033000000000000000000000000000000000000000000000000000060448201526064015b60405180910390fd5b60126001600160a01b03831673bedfffffffffffffffffffffffffffffffffffff146103ce57826001600160a01b031663313ce5676040518163ffffffff1660e01b8152600401602060405180830381865afa1580156103a7573d6000803e3d6000fd5b505050506040513d601f19601f820116820180604052508101906103cb91906111b1565b90505b8060ff16600814806103e357508060ff166012145b61042f5760405162461bcd60e51b815260206004820152600660248201527f5359533030340000000000000000000000000000000000000000000000000000604482015260640161033a565b506001600160a01b03909116600090815260016020526040902055565b6104563382610a62565b50565b6104616109a0565b6001600160a01b0381166104dd5760405162461bcd60e51b815260206004820152602660248201527f4f776e61626c653a206e6577206f776e657220697320746865207a65726f206160448201527f6464726573730000000000000000000000000000000000000000000000000000606482015260840161033a565b610456816109fa565b60006104f182610b94565b9150506000811161052d5760405162461bcd60e51b815260206004820152600660248201526505553523031360d41b604482015260640161033a565b73bedfffffffffffffffffffffffffffffffffffff60005260016020527f4ceef9ea3feaa00f77466de251c768b0a19655cda2c78c80e2b692e0a1eb80c5544711156105a45760405162461bcd60e51b815260206004820152600660248201526555535230303360d01b604482015260640161033a565b6040516340c10f1960e01b81526001600160a01b038481166004830152602482018390527f000000000000000000000000000000000000000000000000000000000000000016906340c10f1990604401600060405180830381600087803b15801561060e57600080fd5b505af1158015610622573d6000803e3d6000fd5b50506040805173bedfffffffffffffffffffffffffffffffffffff8152602081018690527f30385c845b448a36257a6a1716e6ad2e1bc2cbe333cde1e69fe849ad6511adfe935001905060405180910390a1505050565b6000806106868484610bc1565b91509150600081116106c35760405162461bcd60e51b815260206004820152600660248201526505553523031360d41b604482015260640161033a565b60405163079cc67960e41b81526001600160a01b038681166004830152602482018390527f000000000000000000000000000000000000000000000000000000000000000016906379cc679090604401600060405180830381600087803b15801561072d57600080fd5b505af1158015610741573d6000803e3d6000fd5b5061075a925050506001600160a01b0385168684610c89565b604080516001600160a01b0386168152602081018590527f4896181ff8f4543cc00db9fe9b6fb7e6f032b7eb772c72ab1ec1b4d2e03b9369910160405180910390a15050505050565b60006107af8383610bc1565b915050600081116107eb5760405162461bcd60e51b815260206004820152600660248201526505553523031360d41b604482015260640161033a565b6001600160a01b038316600081815260016020526040908190205490517f70a08231000000000000000000000000000000000000000000000000000000008152306004820152909184916370a0823190602401602060405180830381865afa15801561085b573d6000803e3d6000fd5b505050506040513d601f19601f8201168201806040525081019061087f91906111d4565b6108899190611203565b11156108c05760405162461bcd60e51b815260206004820152600660248201526555535230303360d01b604482015260640161033a565b6108d56001600160a01b038416853085610d37565b6040516340c10f1960e01b81526001600160a01b038581166004830152602482018390527f000000000000000000000000000000000000000000000000000000000000000016906340c10f1990604401600060405180830381600087803b15801561093f57600080fd5b505af1158015610953573d6000803e3d6000fd5b5050604080516001600160a01b0387168152602081018690527f30385c845b448a36257a6a1716e6ad2e1bc2cbe333cde1e69fe849ad6511adfe935001905060405180910390a150505050565b6000546001600160a01b031633146102b25760405162461bcd60e51b815260206004820181905260248201527f4f776e61626c653a2063616c6c6572206973206e6f7420746865206f776e6572604482015260640161033a565b600080546001600160a01b038381167fffffffffffffffffffffffff0000000000000000000000000000000000000000831681178455604051919092169283917f8be0079c531659141344cd1fd0a4f28419497f9722a3daafe3b4186f6b6457e09190a35050565b600080610a6e83610b94565b9150915060008111610aab5760405162461bcd60e51b815260206004820152600660248201526505553523031360d41b604482015260640161033a565b60405163079cc67960e41b81526001600160a01b038581166004830152602482018390527f000000000000000000000000000000000000000000000000000000000000000016906379cc679090604401600060405180830381600087803b158015610b1557600080fd5b505af1158015610b29573d6000803e3d6000fd5b50506040805173bedfffffffffffffffffffffffffffffffffffff8152602081018790527f4896181ff8f4543cc00db9fe9b6fb7e6f032b7eb772c72ab1ec1b4d2e03b9369935001905060405180910390a1610b8e6001600160a01b03851683610d88565b50505050565b60008080610ba76402540be4008561121c565b9050610bb86402540be4008261123e565b94909350915050565b6000806000846001600160a01b031663313ce5676040518163ffffffff1660e01b8152600401602060405180830381865afa158015610c04573d6000803e3d6000fd5b505050506040513d601f19601f82011682018060405250810190610c2891906111b1565b90508060ff16600803610c415783849250925050610c82565b8060ff16601203610c79576000610c5d6402540be4008661121c565b9050610c6e6402540be4008261123e565b93509150610c829050565b60008092509250505b9250929050565b6040516001600160a01b038316602482015260448101829052610d329084907fa9059cbb00000000000000000000000000000000000000000000000000000000906064015b60408051601f198184030181529190526020810180517bffffffffffffffffffffffffffffffffffffffffffffffffffffffff167fffffffff0000000000000000000000000000000000000000000000000000000090931692909217909152610ea1565b505050565b6040516001600160a01b0380851660248301528316604482015260648101829052610b8e9085907f23b872dd0000000000000000000000000000000000000000000000000000000090608401610cce565b80471015610dd85760405162461bcd60e51b815260206004820152601d60248201527f416464726573733a20696e73756666696369656e742062616c616e6365000000604482015260640161033a565b6000826001600160a01b03168260405160006040518083038185875af1925050503d8060008114610e25576040519150601f19603f3d011682016040523d82523d6000602084013e610e2a565b606091505b5050905080610d325760405162461bcd60e51b815260206004820152603a60248201527f416464726573733a20756e61626c6520746f2073656e642076616c75652c207260448201527f6563697069656e74206d61792068617665207265766572746564000000000000606482015260840161033a565b6000610ef6826040518060400160405280602081526020017f5361666545524332303a206c6f772d6c6576656c2063616c6c206661696c6564815250856001600160a01b0316610f899092919063ffffffff16565b9050805160001480610f17575080806020019051810190610f179190611255565b610d325760405162461bcd60e51b815260206004820152602a60248201527f5361666545524332303a204552433230206f7065726174696f6e20646964206e60448201527f6f74207375636365656400000000000000000000000000000000000000000000606482015260840161033a565b6060610f988484600085610fa0565b949350505050565b6060824710156110185760405162461bcd60e51b815260206004820152602660248201527f416464726573733a20696e73756666696369656e742062616c616e636520666f60448201527f722063616c6c0000000000000000000000000000000000000000000000000000606482015260840161033a565b600080866001600160a01b03168587604051611034919061129b565b60006040518083038185875af1925050503d8060008114611071576040519150601f19603f3d011682016040523d82523d6000602084013e611076565b606091505b509150915061108787838387611092565b979650505050505050565b606083156111015782516000036110fa576001600160a01b0385163b6110fa5760405162461bcd60e51b815260206004820152601d60248201527f416464726573733a2063616c6c20746f206e6f6e2d636f6e7472616374000000604482015260640161033a565b5081610f98565b610f9883838151156111165781518083602001fd5b8060405162461bcd60e51b815260040161033a91906112b7565b80356001600160a01b038116811461114757600080fd5b919050565b6000806040838503121561115f57600080fd5b61116883611130565b946020939093013593505050565b60006020828403121561118857600080fd5b61119182611130565b9392505050565b6000602082840312156111aa57600080fd5b5035919050565b6000602082840312156111c357600080fd5b815160ff8116811461119157600080fd5b6000602082840312156111e657600080fd5b5051919050565b634e487b7160e01b600052601160045260246000fd5b80820180821115611216576112166111ed565b92915050565b60008261123957634e487b7160e01b600052601260045260246000fd5b500490565b8082028115828204841417611216576112166111ed565b60006020828403121561126757600080fd5b8151801515811461119157600080fd5b60005b8381101561129257818101518382015260200161127a565b50506000910152565b600082516112ad818460208701611277565b9190910192915050565b60208152600082518060208401526112d6816040850160208701611277565b601f01601f1916919091016040019291505056fea2646970667358221220f2e3d3e7c12891fe3703ccb85ed753adf87acf5023ec5b3b0d20762c53f2dc8f64736f6c63430008140033",
  "devdoc": {
    "kind": "dev",
    "methods": {
      "mint()": {
        "details": "mint uniBTC with native BTC"
      },
      "mint(address,uint256)": {
        "details": "mint uniBTC with the given type of wrapped BTC"
      },
      "owner()": {
        "details": "Returns the address of the current owner."
      },
      "redeem(address,uint256)": {
        "details": "burn uniBTC and redeem the given type of wrapped BTC"
      },
      "redeem(uint256)": {
        "details": "burn uniBTC and redeem native BTC"
      },
      "renounceOwnership()": {
        "details": "Leaves the contract without owner. It will not be possible to call `onlyOwner` functions. Can only be called by the current owner. NOTE: Renouncing ownership will leave the contract without an owner, thereby disabling any functionality that is only available to the owner."
      },
      "setCap(address,uint256)": {
        "details": "set cap for a specific type of wrapped BTC"
      },
      "transferOwnership(address)": {
        "details": "Transfers ownership of the contract to a new account (`newOwner`). Can only be called by the current owner."
      }
    },
    "version": 1
  },
  "userdoc": {
    "events": {
      "Withdrawed(address,uint256,address)": {
        "notice": "====================================================================================== EVENTS ======================================================================================"
      }
    },
    "kind": "user",
    "methods": {},
    "version": 1
  },
  "storageLayout": {
    "storage": [
      {
        "astId": 775,
        "contract": "contracts/mocks/UniBTCVault.sol:UniBTCVault",
        "label": "_owner",
        "offset": 0,
        "slot": "0",
        "type": "t_address"
      },
      {
        "astId": 7806,
        "contract": "contracts/mocks/UniBTCVault.sol:UniBTCVault",
        "label": "caps",
        "offset": 0,
        "slot": "1",
        "type": "t_mapping(t_address,t_uint256)"
      }
    ],
    "types": {
      "t_address": {
        "encoding": "inplace",
        "label": "address",
        "numberOfBytes": "20"
      },
      "t_mapping(t_address,t_uint256)": {
        "encoding": "mapping",
        "key": "t_address",
        "label": "mapping(address => uint256)",
        "numberOfBytes": "32",
        "value": "t_uint256"
      },
      "t_uint256": {
        "encoding": "inplace",
        "label": "uint256",
        "numberOfBytes": "32"
      }
    }
  }
}